:020000040800F2
:10000000B0060020A1010008A71F0008E91D000894
:10001000A51F0008E50200085D210008000000009F
:10002000000000000000000000000000AB1F0008FE
:10003000C304000800000000A91F0008AD1F00084D
:10004000BB010008BB010008BB010008BB010008A0
:10005000BB010008BB010008BB010008BB01000890
:10006000BB010008BB010008BB010008BB01000880
:10007000BB010008BB010008BB010008BB01000870
:10008000BB010008BB010008BB010008BB01000860
:10009000E9020008F5020008BB010008BB010008E6
:1000A000BB010008BB010008BB010008BB01000840
:1000B000BB010008BB010008BB010008BB01000830
:1000C000BB010008BB010008BB010008BB01000820
:1000D000BB010008BB010008BB010008BB01000810
:1000E000BB010008BB010008BB010008BB01000800
:1000F000BB010008BB010008BB010008BB010008F0
:10010000BB010008BB010008BB010008BB010008DF
:10011000BB010008BB010008BB010008BB010008CF
:10012000BB010008E1030008ED030008BB01000863
:10013000BB010008BB010008BB010008BB010008AF
:10014000010300080D030008BB010008BB01000803
:10015000BB010008F903000805040008BB01000802
:10016000BB010008BB010008BB010008BB0100087F
:10017000BB010008BB010008BB0100080000000033
:10018000BB010008BB010008DFF810D000F07CF8CC
:10019000004800477D210008AFF30080B006002032
:1001A0000648804706480047FEE7FEE7FEE7FEE711
:1001B000FEE7FEE7FEE7FEE7FEE7FEE74520000874
:1001C000890100082DE9F05F0546002092469B4614
:1001D00088460646814640241BE02846414647465D
:1001E000224600F041F853465A46C01A914110D3B6
:1001F00011461846224600F028F82D1A67EB010830
:100200004F4622460120002100F01FF817EB00099D
:100210004E41201EA4F10104DFDC484631462A4647
:100220004346BDE8F09FD2B201E000F8012B491E21
:10023000FBD270470022F6E710B513460A46044683
:100240001946FFF7F0FF204610BD202A04DB203AB4
:1002500000FA02F1002070479140C2F1200320FA19
:1002600003F3194390407047202A04DB203A21FA17
:1002700002F00021704721FA02F3D040C2F12002BF
:100280009140084319467047064C074D06E0E06868
:1002900040F0010394E8070098471034AC42F6D3CD
:1002A000FFF776FF002200082022000830B505780D
:1002B00065F30703457865F30F23857865F31743E6
:1002C000C57865F31F63057965F30704457965F320
:1002D0000F248579C07965F3174460F31F640B60C0
:1002E000146030BDFEE70000014800F0CCBA000009
:1002F00014000020014800F0C6BA000014000020DD
:10030000014800F0C0BA00003C000020014800F0A5
:10031000BABA00003C000020F0B507460068144956
:10032000002401250E2695B088420DD10494CDE914
:100330000856059401940294009469460D4803946C
:10034000CDE9064500F054F90B49386888420DD1D3
:10035000CDE90E4612950B940C940A940AA907480D
:1003600013960D94CDE9104500F042F915B0F0BD9B
:100370000064004014000020006800403C000020A1
:1003800010B5044600F037FD0221204600F09CF82D
:100390002046BDE81040FFF7BFBF000010B504487D
:1003A000FFF7EEFFBDE810400248FFF7E9BF00008D
:1003B000140000203C00002000B589B0009100210D
:1003C000029103918DF81820082104918DF81930BD
:1003D00008AB06AA694600F089F809B000BD000024
:1003E000014800F041BD00000C020020014800F06F
:1003F0003BBD00004C010020014800F035BD00006D
:10040000AC010020014800F02FBD0000EC000020EE
:1004100001680A4BCAB2103AA3FB02321209084B18
:100420009B5CC365032A04D96FF30901091D81652B
:1004300002E06FF309018165806D7047ABAAAAAA3B
:10044000E0210008014600208A6A8B69002B0FD04A
:10045000B3F5005F1DD08AB3012A30D0022A2ED016
:10046000032A04D1C96A11F0807F00D001207047AF
:100470001AB1012A07D0022AF9D1C96A11F0807F86
:10048000F5D001207047C96AB1F1C07FFAD10120CF
:1004900070475AB1012A0BD0022A07D0032AF7D19C
:1004A000C96AB1F1C07FF3D10120704701207047C4
:1004B000C96A11F0807FFAD001207047FFE7012060
:1004C0007047704772B6FEE790F82020012A07D0E7
:1004D000022A05D0416A41F480214162012070471F
:1004E00000684269114341610020704770B490F880
:1004F0002040D0F800C0DCF808C0012C08D0022C45
:1005000006D0416A41F48021416270BC01207047ED
:100510000CF080640CF000652C4302D11CF0805F6D
:100520005FD0CCF3016CBCF1020F06D9416A41F4F3
:100530000001416270BC01207047012404FA0CF4F0
:100540001C608B684FF4C0749BB1CD6804EB0C1633
:100550002B434D6843EAC5030568AB514FF4C273A2
:10056000066803EB0C130D69F550097D012909D0CC
:100570000DE00D88CB6804EB0C1643EA4553056883
:10058000AB51EBE70168CD5845F48075CD5011793A
:10059000D379557941EA036193791B0443EA052332
:1005A00019434FF4C675036805EB0C1559511178C2
:1005B000D37841EA0361937852781B0443EA02221C
:1005C00011434FF4C473026803EB0C13D15001685C
:1005D00004EB0C100A5842F001020A5070BC0020D3
:1005E0007047416A41F40011416270BC01207047BC
:1005F00090F82020012A07D0022A05D0416A41F450
:1006000080214162012070474248D0F8002242F028
:100610000102C0F80022D0F8002222F47C52C0F877
:100620000022D0F800224B6A42EA0322C0F80022DE
:100630000A7D012302F01F0203FA02F2D0F81C32F5
:100640009343C0F81C32CB69D3B9D0F80C32934332
:10065000C0F80C32B1F80CC04B686CF31F43D1F8F2
:1006600014C000EBCC0CCCF84032B1F808C00B68D9
:100670006CF31F43D1F814C000EBCC0CCCF844321F
:10068000CB69012B1AD1D0F80C321343C0F80C32CD
:10069000B1F800C04B686CF31F43D1F814C000EBF5
:1006A000CC0CCCF84032B1F808C0CB686CF31F43D7
:1006B000D1F814C000EBCC0CCCF844328B697BB180
:1006C000D0F804321343C0F804320B6973B1D0F888
:1006D00014321343C0F81432096A01290CD010E017
:1006E000D0F804329343C0F80432EEE7D0F8143265
:1006F0009343C0F81432EFE7D0F81C121143C0F84E
:100700001C12D0F8001221F00101C0F800120020E4
:100710007047000000640040704710B490F820C09B
:10072000BCF1010F09D0BCF1020F06D0416A41F4BF
:100730008021416210BC0120704739B1D0F800C05F
:10074000DCF810C01CF0030F7DD006E0D0F800C02C
:10075000DCF80CC01CF0030F7BD04FF4D87C04688D
:100760000CEB011C54F80C4004F004049460002CC1
:100770007DD0046854F80C40E4085460046854F8D0
:100780000CC00CF0020CC2F80CC04FF4DA7C046808
:100790000CEB011C54F80C4004F00F0414610468C5
:1007A00054F80C40C4F307249461046854F80CC056
:1007B0004FEA1C4CC2F814C04FF4DC72D0F800C0F1
:1007C00002EB01125CF802C083F800C0D0F800C050
:1007D0005CF802C04FEA1C2C83F801C0D0F800C0BE
:1007E0005CF802C04FEA1C4C83F802C0D0F800C08D
:1007F0005CF80220120EDA704FF4DE72D0F800C0FE
:1008000002EB01125CF802C083F804C0D0F800C00B
:100810005CF802C04FEA1C2C83F805C0D0F800C079
:100820005CF802C04FEA1C4C83F806C0D0F800C048
:100830005CF80220120EDA71F9B10068016941F02A
:100840002001016102E00BE003E010E010BC002099
:100850007047416A41F40011416210BC01207047A9
:10086000416A41F40011416210BC012070470468E4
:1008700054F80C40640D146080E70068C16841F0D2
:100880002001C160DEE72DE9F05F054600242868FD
:100890004669D0F804908768D0F80CA0D0F810B062
:1008A000D0F8188016F0010F54D017F0010F17D0B0
:1008B0000121816017F0020F03D0284600F0CEFA24
:1008C0000EE017F0040F02D04FF4006408E017F0B8
:1008D000080F02D04FF4805402E0284600F0BDFA21
:1008E00017F4807F19D029684FF48070886017F45E
:1008F000007F03D0284600F0B3FA0EE017F4806FB3
:1009000002D044F4005408E017F4006F02D044F41D
:10091000804402E0284600F0A2FA17F4803F19D084
:1009200029684FF48030886017F4003F03D02846D0
:1009300000F098FA0EE017F4802F02D044F400443F
:1009400008E017F4002F02D044F4803402E0284677
:1009500000F087FA16F0080F07D01AF0100F04D035
:1009600044F4007429681020C86016F0040F4FF09A
:10097000080707D01AF0080F04D02868C760284677
:1009800000F0DEF916F0020F07D02868C06810F0FA
:10099000030F02D0284600F0D5F916F0400F07D01B
:1009A0001BF0100F04D044F4806429681020086103
:1009B00016F0200F07D01BF0080F04D0286807613D
:1009C000284600F015FA16F0100F07D028680069C5
:1009D00010F0030F02D0284600F00BFA16F4003F87
:1009E00008D019F0100F05D029681020486028465B
:1009F00000F000FA16F4803F07D019F0080F04D079
:100A000028684760284600F02EFA16F4004F4AD0B6
:100A100019F0040F44D016F4807F04D018F0010FB1
:100A200001D044F0010416F4007F04D018F0020F46
:100A300001D044F0020416F4806F04D018F0040FC3
:100A400001D044F0040416F4006F29D018F0700FA0
:100A500026D008F07000402815D006DC102809D0F8
:100A600020280AD0302816D10AE050280ED060285D
:100A700011D10EE044F008040DE044F010040AE047
:100A800044F0200407E044F0400404E044F0800413
:100A900001E044F480742868816921F0700181616B
:100AA000296804204860002C05D0686A20436862E9
:100AB0002846FFF731FEBDE8F09F70B50446002CD4
:100AC00003D094F8200010B104E0012070BD20464E
:100AD00000F0A8F82068016841F00101016000F011
:100AE00059FC0546206840684FF0050610F0010FDC
:100AF00011D100F04FFC401B0A2807D9606A40F46E
:100B00000030606284F82060012070BD2068406879
:100B100010F0010FEDD02068016821F002010160A2
:100B200000F038FC05462068406810F0020F11D034
:100B300000F030FC401B0A2807D9606A40F40030FE
:100B4000606284F82060012070BD2068406810F069
:100B5000020FEDD1207E01283FD02068016821F0EE
:100B600080010160607E01283DD02068016821F08D
:100B700040010160A07E01283BD02068016821F07F
:100B800020010160E07E012839D02068016841F031
:100B900010010160207F012837D02068016821F012
:100BA00008010160607F012835D02068016821F0CC
:100BB00004010160E168A06862690843216911438A
:100BC00008436168491E08432168C86100206062CB
:100BD000012084F82000002070BD2068016841F0E9
:100BE00080010160BEE72068016841F040010160BA
:100BF000C0E72068016841F020010160C2E7206879
:100C0000016821F010010160C4E72068016841F02B
:100C100008010160C6E72068016841F00401016035
:100C2000C8E70000F0B587B0044614216846FFF716
:100C300001FB3E4B3E48DFF8F0E01968D4F800C0F5
:100C40003B4A03250226092710300024491CF4459D
:100C50002AD11960012907D1016841F000710160B2
:100C6000006800F000700590106840F00800106007
:100C70001068CDE9005600F00800CDE9047069461F
:100C80002C48CDE9024500F06FFA00220121142022
:100C900000F0F0FB142000F0DFFB00220121152002
:100CA00000F0E8FB15203AE0DFF88CE0F44538D19D
:100CB000D0F800C04CF0806CC0F800C0D0F800C084
:100CC00001290CF0806CCDF814C0196007D10168BF
:100CD00041F000710160006800F00070059010683C
:100CE00040F002001060106802AB00F002000590B6
:100CF0006020CDE9000683E8B00069460F4800F0A7
:100D000033FA00220121402000F0B4FB402000F023
:100D1000A3FB00220121412000F0ACFB412000F0A8
:100D20009BFB07B0F0BD0000006400400000002005
:100D300030380240000C02400068004000040240CD
:100D40007047000010B504460068214992B08842FF
:100D500005D110AB09AA00211E48FFF7DEFC1E4991
:100D6000206888421CD16B4602AA00211B48FFF76D
:100D7000D4FC1B49029801F10C0208310A280FD259
:100D8000DFE800F00E0508101316191F2424154A79
:100D9000114618E0134A11460FE000BFFFF786FA2C
:100DA00012B010BD104A11460DE00F4A114604E082
:100DB0000E4A114607E00D4A1146083168460C32CA
:100DC000ECE7074A11466846121DE7E76846E5E783
:100DD0000064004014000020006800403C00002037
:100DE0009C0200206C0200207C0200208C0200206B
:100DF00070477047704770B5044694F8200001288A
:100E000005D0606A40F400206062012070BD0220BD
:100E100084F820002068016821F00101016000F0E1
:100E2000B9FA05462068406810F0010F12D000F0B2
:100E3000B1FA401B0A2808D9606A40F400306062A9
:100E4000052084F82000012070BD2068406810F063
:100E5000010FECD10020606270BD70477047704791
:100E600070477047704770472DE9F84304464FF0CC
:100E70000008CDF8008076484FF416510068B0FBAA
:100E8000F1F7A56D2E6894F85C00082101FA00F0D6
:100E9000304211D02068026812F0040F0CD00268B2
:100EA00022F00402026094F85C0001FA00F0A860ED
:100EB000606D40F00100606594F85C004FF001093E
:100EC00009FA00F0304209D02168496911F0800F19
:100ED00004D0A860606D40F00200606594F85C107A
:100EE00004208840304209D02168096811F0020FBF
:100EF00004D0A860606D40F00400606594F85C1058
:100F000010208840304224D02168096811F0080F71
:100F10001FD0A8602068016811F4802F0DD00068F0
:100F200010F4002F04D0A16C99B12046884710E03E
:100F3000216C71B1204688470BE0016811F4807F75
:100F400003D1016821F008010160216C09B120463C
:100F5000884794F85C1020208840304251D02168A6
:100F6000096811F0100F4CD0A86094F835000528DE
:100F70000DD02068016811F4802F32D0006810F481
:100F8000002F29D0E16B59B32046884739E020680B
:100F9000016821F0160101602068416921F080019B
:100FA0004161206C08B9A06C20B12068016821F073
:100FB0000801016094F85C003F2101FA00F0A8608C
:100FC00084F8359084F83480216D00293ED001B03A
:100FD0002046BDE8F0430847616C09B120468847C8
:100FE0000FE0016811F4807F07D1016821F0100142
:100FF000016084F8359084F83480E16B09B12046B3
:101000008847606D002821D0606D10F0010F15D069
:10101000052084F835002068016821F00101016095
:101020000098401C0090B84204D82068006810F076
:10103000010FF5D184F8359084F83480E16C0029F3
:1010400004D001B02046BDE8F0430847BDE8F8836E
:10105000100000202DE9F041044600F09BF9054600
:10106000DCB1022084F83500002684F83460206862
:10107000016821F0010101602068006810F0010F93
:1010800013D000F087F9401B052809D9202060659E
:10109000032084F83500BDE8F0810120BDE8F0812F
:1010A0002068006810F0010FEBD121680868234A1E
:1010B0001040A3686268D4F810C01A43E36843EA9A
:1010C0000C031A4363691A43A3691A43E3691A4379
:1010D000236A1A431043626A042A03D1236BE26A2B
:1010E0001A43104308602068406920F00701606AD5
:1010F00040EA0105012704280ED1A06A0543E06AF1
:1011000050B12046FFF79EF930B14020606584F869
:1011100035700120BDE8F081206845612046FFF769
:1011200077F994F85C103F2202FA01F1816066655C
:1011300084F835700020BDE8F08100003F8010F099
:1011400070B5044600F026F90546B4F1FF3F02D021
:1011500004480078044400F01DF9401BA042FAD373
:1011600070BD0000040000202DE9F84F0022DFF8D8
:1011700018A2DFF810924FF0010E03274FF00F086E
:10118000AAF1040B0EFA02FC0B6803EA0C03634598
:101190007DD10C7904F00304012C01D0022C14D170
:1011A0008568540007FA04F6B543CE6806FA04F4DD
:1011B0002C438460446824EA0C0C0C79C4F30014BA
:1011C000944044EA0C0CC0F804C0D1F804C037EADB
:1011D0000C0C0CD0C4684FEA420C07FA0CF5AC4377
:1011E0008D6805FA0CFC4CEA040CC0F80CC091F8B0
:1011F00004C00CF0030CBCF1020F12D14FEAD20C68
:1012000000EB8C04256A4FEA427C4FEADC6C08FA5A
:101210000CF6B5430E6906FA0CFC4CEA050CC4F852
:1012200020C004684FEA420C07FA0CF5AC430D7974
:1012300005F0030505FA0CFC4CEA040CC0F800C0EC
:10124000D1F804C01CF4403F7DD0D9F800C04CF464
:10125000804CC9F800C0D9F800C00CF4804CCDF81F
:1012600000C022F0030C0CF1804505F59835D5F847
:1012700008C89407240F08FA04F62CEA0606A0F121
:10128000804CBCF5003C64D0A0F1804C00E05AE0FA
:10129000BCF5013C60D0A0F1804CBCF5023C5ED0B6
:1012A000A0F1804CBCF5033C5CD0A0F1804CBCF5B7
:1012B000043C5AD0A0F1804CBCF5053C58D0A0F1BC
:1012C000804CBCF5063C56D0A0F1804CBCF5073CE8
:1012D00054D04FF0080C0CFA04FC4CEA060CC5F88C
:1012E00008C8DAF800C02CEA030C4C6814F4801F1C
:1012F00001D04CEA030CCAF800C0244CD4F800C05A
:101300002CEA030C4D6815F4001F01D04CEA030CC5
:10131000C4F800C0DBF800C02CEA030C4C6814F4DD
:10132000003F01D04CEA030CCBF800C0184CD4F8B5
:1013300000C02CEA030C4D6815F4803F01D04CEA44
:10134000030CC4F800C0521C102AFFF41BAFBDE808
:10135000F88F4FF0000CBEE74FF0010CBBE74FF0E9
:10136000020CB8E74FF0030CB5E74FF0040CB2E7FE
:101370004FF0050CAFE74FF0060CACE74FF0070C51
:10138000A9E7000044380240083C01400C3C014001
:10139000003C0140014880687047000004000020C4
:1013A000024881680278114481607047040000207F
:1013B00010B50B48016841F400710160016841F407
:1013C00080610160016841F480710160032000F0D8
:1013D00085F8002000F006F800F026F8002010BD87
:1013E000003C024070B504460D4D4FF47A712878E8
:1013F000B1FBF0F00B490968B1FBF0F000F0DEFB47
:1014000008B1012070BD102C07D200222146501EC9
:1014100000F030F86C60002070BD012070BD00004D
:1014200004000020100000200A4808B5016841F4BB
:1014300080410160006800F4804000900548001F72
:10144000016841F080510160006800F08050009018
:1014500008BD00004438024000280ADB00F01F01EC
:10146000012202FA01F14009800000F1E020C0F8F9
:101470000011704710B4184B1B68C3F30223C3F16B
:10148000070CBCF1040F01D94FF0040C1C1D072CF4
:1014900001D2002300E0DB1E012404FA0CFCACF1B5
:1014A000010C0CEA0101994004FA03F35B1E1A4097
:1014B0001143002806DB00F1E020090180F8001448
:1014C00010BC704700F00F0000F1E020090180F827
:1014D000141D10BC704700000CED00E000F0070088
:1014E000064A11684FF6FF03194041EA002040F018
:1014F000FD7040F080601060704700000CED00E06F
:101500002DE9F04704460D46002C13D0DFF8549126
:10151000D9F80000EFB200F00700A8420DD289F818
:101520000070D9F8000000F00700A84205D00120A3
:10153000BDE8F0870120BDE8F08720684A4E10F032
:10154000020F14D010F0040F03D0306840F4E050C4
:101550003060207810F0080F03D0306840F460400D
:1015600030603068A16820F0F000084330602078D7
:1015700010F0010F3ED060683C49012808D00228D5
:101580000DD003280BD0096811F0020F28D00AE013
:10159000096811F4003F06D10120BDE8F087096811
:1015A00011F0007F19D0316821F003010843306049
:1015B000FFF7F0FE80463068616800F00C00B0EB89
:1015C000810F17D041F2883AFFF7E4FEA0EB080044
:1015D000504508D90320BDE8F0870120BDE8F08719
:1015E0000120BDE8F0873068616800F00C00B0EBC6
:1015F000810FE9D1D9F8000000F00700A8420AD90C
:1016000089F80070D9F8000000F00700A84202D065
:101610000120BDE8F087207810F0040F05D0306875
:10162000E16820F4E05008433060207810F0080FA3
:1016300006D03068216920F4604040EAC100306083
:1016400000F042F831680A4AC1F30311515CC84006
:101650000849086008480068FFF7C4FE0020BDE89C
:10166000F0870000003C0240083802400038024089
:10167000E821000810000020080000200148006850
:10168000704700001000002000B5FFF7F7FF044985
:101690000968044AC1F38221515CC84000BD0000C2
:1016A00008380240F821000800B5FFF7E7FF0449B9
:1016B0000968044AC1F34231515CC84000BD0000D2
:1016C00008380240F821000810B51748006810F0EB
:1016D0000C01164816D0164B042912D0082911D136
:1016E000144C216801F03F02216811F4800F0AD0E8
:1016F0002068C0F38810A0FB03010023FEF762FD01
:1017000009E0184610BD21680023C1F38811A1FB30
:101710000001FEF757FD2168C1F30141491C490052
:10172000B0FBF1F010BD0000083802400024F400C6
:10173000001BB700043802402DE9F84F0446002C86
:1017400012D02078FB4E10F0010FA6F1040563D0F3
:10175000301D016801F00C0104290CD0006800F074
:101760000C00082803D010E00120BDE8F88F306895
:1017700010F4800F09D0286810F4003F4CD0606846
:10178000002849D10120BDE8F88F6068B0F5803F9E
:1017900014D0B0F5A02F16D0286820F4803028602F
:1017A000286820F480202860606810B3FFF7F2FDFD
:1017B0000746286810F4003F0ED02DE0286840F45A
:1017C00080302860F0E7286840F48020286028688E
:1017D00040F480302860E7E7FFF7DCFDC01B642899
:1017E00002D90320BDE8F88F286810F4003FF3D039
:1017F00012E0FFF7CFFD0746286810F4003F0BD03A
:10180000FFF7C8FDC01B642802D90320BDE8F88F8C
:10181000286810F4003FF3D12078C74F10F0020F72
:101820004FF0000957D0C548016811F00C0F14D0D3
:10183000006800F00C00082803D1306810F4800F15
:101840000BD0E06880B301203860FFF7A3FD80462D
:10185000286810F0020F12D01EE0286810F0020F66
:1018600005D0E068012802D00120BDE8F88F286883
:10187000216920F0F80040EAC10028602BE0FFF762
:1018800089FDA0EB0800022802D90320BDE8F88FEB
:10189000286810F0020FF2D02868216920F0F800C3
:1018A00040EAC100286016E0FFE7C7F80090FFF7A4
:1018B00071FD8046286810F0020F0CD0FFF76AFD1A
:1018C000A0EB0800022802D90320BDE8F88F2868A1
:1018D00010F0020FF2D1207810F0080F35D09848A0
:1018E000DFF860A26169C1B101210160FFF752FD1B
:1018F0008046DAF8000010F0020F26D1FFF74AFD0B
:10190000A0EB0800022802D90320BDE8F88FDAF81E
:10191000000010F0020FF1D017E0C0F80090FFF7C0
:1019200039FD8046DAF8000010F0020F0DD0FFF705
:1019300031FDA0EB0800022802D90320BDE8F88F92
:10194000DAF8000010F0020FF1D1207810F0040F47
:1019500071D04FF000087C48006810F0805F0AD119
:101960007948016841F080510160006800F08050C2
:1019700000904FF00108DFF8D4B1DBF8000010F45C
:10198000807F1BD1DBF8000040F48070CBF80000B2
:10199000FFF700FD8246DBF8000010F4807F0DD1D8
:1019A000FFF7F8FCA0EB0A00022802D90320BDE8EB
:1019B000F88FDBF8000010F4807FF1D0A068DFF82A
:1019C00090B1012818D005281DD0DBF8000020F0C8
:1019D0000100CBF80000DBF8000020F00400CBF899
:1019E0000000A06840B3FFF7D5FC8246DBF800009A
:1019F00010F0020F14D03EE0DBF8000040F00100D0
:101A0000CBF80000EDE7DBF8000040F00400CBF875
:101A10000000DBF8000040F00100CBF80000E0E738
:101A2000FFF7B8FCA0EB0A0141F28830814204D9EB
:101A30000320BDE8F88F26E005E0DBF8000010F099
:101A4000020FEDD017E0FFF7A5FC8246DBF800009F
:101A500010F0020F0FD0FFF79DFCA0EB0A0141F23E
:101A60008830814202D90320BDE8F88FDBF80000FE
:101A700010F0020FEFD1B8F1010F04D13248016824
:101A800021F080510160A069F0B32C4909684FF042
:101A9000FF3801F00C01082966D0022810D0C7F8E1
:101AA0006090FFF777FC0446286810F0007F2BD089
:101AB000FFF770FC001B022851D90320BDE8F88F06
:101AC000C7F86090FFF766FC8146286810F0007F39
:101AD0000CD0FFF75FFCA0EB0900022802D903201D
:101AE000BDE8F88F286810F0007FF2D1216AE06924
:101AF000A26A0843616A08EB5202890141EA024185
:101B0000084394F82C1000E055E040EA0160306092
:101B100001203866FFF73EFC0446286810F0007F7D
:101B200049D1FFF737FC001B022813D90320BDE879
:101B3000F88F000004380240000047420838024095
:101B4000800E474274380240403802400070004026
:101B500070380240286810F0007FE2D02BE028683F
:101B600010F0007FA4D126E0012822D03068E2697D
:101B700000F4800191421AD1226A00F03F019142A3
:101B800015D147F6C071626A0140B1EB821F0ED1D8
:101B9000A26A00F4403108EB5202B1EB024F06D1C9
:101BA00094F82C1000F07060B0EB016F03D00120AE
:101BB000BDE70120BBE70020B9E70000401EB0F1FF
:101BC000807F01D3012070474FF0E0214861044A33
:101BD000F020107000208861072008610020704705
:101BE00023ED00E070B50446002C04D094F83D00CD
:101BF000002510B106E0012070BD84F83C5020465D
:101C000000F022F8242084F83D002068C16821F407
:101C10000051C160204600F023FA2068016921F4D8
:101C2000904101612068416921F02A0141612068E9
:101C3000C16841F40051C1602564202084F83D0052
:101C400084F83E00002070BD2DE9F04F87B00446B7
:101C500014216846FEF7EEFA5B485A4B22685A494F
:101C600014380226032700254FF040094FF4003BAB
:101C70004FF4806A9A4258D10A6842F010020A6012
:101C8000096801F010010591016841F0020101604D
:101C9000016801F002010591016841F00101016054
:101CA000006802AA00F0010005908020CDE900063E
:101CB0004FF0070882E8A00169464448FFF754FA4C
:101CC0003002CDE9000602AA694682E8A001404838
:101CD000FFF74AFA404E3F484FF00068C6E9035A02
:101CE0007561B561F5613562756286E80103574635
:101CF0003046FFF7AFF908B1FEF7E4FB66633548FD
:101D0000B463354E783860363060C6E90185C6E97F
:101D100003577561B561C6E9075B3046756249E0F6
:101D2000A663B46307B0BDE8F08F2C4B9A42F9D19B
:101D30000A6842F020020A60096801F0200105915A
:101D4000016841F0400101600068029500F0400028
:101D500005904FF48440CDE900060820CDE90370DA
:101D600069461F48FFF700FA1B4E1A48C03618385C
:101D7000C6E9035A7561B561F56135624FF02068B7
:101D8000756286E8010357463046FFF763F908B1EC
:101D9000FEF798FB6663B4630E48124E90383060CD
:101DA000C6E90185C6E903577561B561C6E9075BF8
:101DB00030467562FFF74EF90028B1D0FEF782FB7E
:101DC000AEE7000000100140443802400004024029
:101DD00000000240B8640240EC0000200014014002
:101DE000001802400C020020FEE700000F4810B56A
:101DF0000D4901600321416000214FF410228160F0
:101E0000C0E903124FF400124261017641768176F7
:101E1000C17601774177FEF750FE002803D0BDE878
:101E20001040FEF74FBB10BD0064004014000020BE
:101E30000F4810B50D4901600321416000214FF4A6
:101E400010228160C0E903124FF400124261017652
:101E500041768176C17601774177FEF72EFE002824
:101E600003D0BDE81040FEF72DBB10BD0068004058
:101E70003C000020154808B5016841F4800101606C
:101E80000068002200F48000009011463920FFF71E
:101E9000F1FA3920FFF7E0FA002211463A20FFF765
:101EA000E9FA3A20FFF7D8FA002211464520FFF759
:101EB000E1FA4520FFF7D0FA002211464620FFF74D
:101EC000D9FABDE808404620FFF7C6BA30380240CC
:101ED000154808B5016841F002010160016801F090
:101EE00002010091016841F040010160016801F0C8
:101EF00040010091016841F001010160016801F0B9
:101F000001010091016841F008010160016801F0E0
:101F100008010091016841F080010160006800F053
:101F20008000009008BD0000303802400C4810B519
:101F30000A4901600B494160002181600C22C160A7
:101F4000C0E904128161C161FFF74CFE002803D093
:101F5000BDE81040FEF7B6BA10BD00000010014009
:101F600064000020003E49000C4810B50A49016099
:101F70000B494160002181600C22C160C0E904125C
:101F80008161C161FFF72EFE002803D0BDE810403B
:101F9000FEF798BA10BD000000140140A800002010
:101FA000003E4900FEE7FEE770477047FFF7F8B9CB
:101FB00030B593B030216846FEF73CF914210CA8E7
:101FC000FEF738F91D480025016841F08051016095
:101FD000006800F0805011901948016841F4804178
:101FE00001600068022400F48040119001200090FC
:101FF000000401908001CDE9064006200890A82049
:10200000CDE9090404200B906846FFF795FB08B161
:1020100072B6FEE70CA90F2081E831004FF4A05002
:102020000F904FF48050109005210CA8FFF768FA2C
:10203000002801D072B6FEE713B030BD4038024030
:10204000007000400448016841F4700101600349D8
:102050004FF000600860704788ED00E008ED00E098
:102060002DE9F041044620680169E26821F44051FD
:10207000114301612169A068E26908436169114364
:1020800001432068C26822F4037222F4144211430F
:10209000C16020684169A26921F440711143416126
:1020A0002068A0F18041B1F588312ED0A0F18041A7
:1020B000B1F58A3129D0FFF7E7FA8446E1690020BB
:1020C0001927254D3226B1F5004F22D06068830FC5
:1020D0008200ACFB0701FEF775F80146A5FB002066
:1020E00040097A42424301EB820106EB0111A5FB54
:1020F0000121490901F0F00202EB001001F00F018B
:10210000084421688860BDE8F081FFF7CDFA844675
:10211000D4E761684A1840EB0003ACFB0701FEF707
:1021200051F80346A5FB0010410918460A016FF05B
:102130001803594300EB810006EBC000A5FB00101B
:10214000400900F0F80102EB410100F007000844EB
:1021500021688860BDE8F0811F85EB51FEE702E051
:1021600008C8121F08C1002AFAD170477047002022
:1021700001E001C1121F002AFBD17047FFF718F9D7
:10218000FFF716FFFFF7A4FEFFF774FEFFF72EFE22
:10219000FFF74EFEFFF7CAFEFFF7E6FEFEF7FEF87A
:1021A0000023012209210D48FEF706F90023012230
:1021B00009210A48FEF700F90023012209210748F6
:1021C000FEF7FAF842F21070FEF7BAFF00231A4643
:1021D00009210248FEF7F0F8F8E700003C00002073
:1021E0000006101600061016000000000000000097
:1021F00001020304060708090000000001020304AD
:102200002022000800000020140000005E210008C9
:1022100034220008140000209C0600006E210008F3
:10222000000000000100000010000000000000009D
:042230000024F40092
:040000050800018965
:00000001FF
