:020000040800F2
:10000000680B0020A1010008931C0008D71A000803
:10001000911C000809030008991F00080000000057
:10002000000000000000000000000000971C000815
:10003000B104000800000000951C0008991C00088D
:10004000BB010008BB010008BB010008BB010008A0
:10005000BB010008BB010008BB010008BB01000890
:10006000BB010008BB010008BB010008BB01000880
:10007000BB010008BB010008BB010008BB01000870
:10008000BB010008BB010008BB010008BB01000860
:100090000D03000819030008BB010008BB0100089C
:1000A000BB010008BB010008BB010008BB01000840
:1000B000BB010008BB010008BB010008BB01000830
:1000C000BB010008BB010008BB010008BB01000820
:1000D000BB010008BB010008BB010008BB01000810
:1000E000BB010008BB010008BB010008BB01000800
:1000F000BB010008BB010008BB010008BB010008F0
:10010000BB010008BB010008BB010008BB010008DF
:10011000BB010008BB010008BB010008BB010008CF
:10012000BB010008DD030008E9030008BB0100086B
:10013000BB010008BB010008BB010008BB010008AF
:100140002503000831030008BB010008BB010008BB
:10015000BB010008F503000801040008BB0100080A
:10016000BB010008BB010008BB010008BB0100087F
:10017000BB010008BB010008BB0100080000000033
:10018000BB010008BB010008DFF810D000F08EF8BA
:100190000048004715200008AFF30080680B0020DE
:1001A0000648804706480047FEE7FEE7FEE7FEE711
:1001B000FEE7FEE7FEE7FEE7FEE7FEE7311D00088B
:1001C000890100082DE9F05F0546002092469B4614
:1001D00088460646814640241BE02846414647465D
:1001E000224600F053F853465A46C01A914110D3A4
:1001F00011461846224600F03AF82D1A67EB01081E
:100200004F4622460120002100F031F817EB00098B
:100210004E41201EA4F10104DFDC484631462A4647
:100220004346BDE8F09F40EA01039B0703D009E085
:1002300008C9121F08C0042AFAD203E011F8013BD2
:1002400000F8013B521EF9D27047D2B201E000F82B
:10025000012B491EFBD270470022F6E710B513466A
:100260000A4604461946FFF7F0FF204610BD202A33
:1002700004DB203A00FA02F1002070479140C2F1FD
:10028000200320FA03F3194390407047202A04DB2F
:10029000203A21FA02F00021704721FA02F3D040FF
:1002A000C2F120029140084319467047064C074DA1
:1002B00006E0E06840F0010394E807009847103436
:1002C000AC42F6D3FFF764FF90240008B024000886
:1002D00030B5057865F30703457865F30F23857816
:1002E00065F31743C57865F31F63057965F3070464
:1002F000457965F30F248579C07965F3174460F378
:100300001F640B60146030BDFEE70000014800F080
:10031000E0B9000014000020014800F0DAB9000044
:1003200014000020014800F0D4B900003C00002077
:10033000014800F0CEB900003C000020F0B50746AF
:1003400000681449002401250E2695B088420DD17D
:100350000494CDE9085605940194029400946946EA
:100360000D480394CDE9064500F0B8F80B4938680C
:1003700088420DD1CDE90E4612950B940C940A9447
:100380000AA9074813960D94CDE9104500F0A6F888
:1003900015B0F0BD0064004014000020006800406B
:1003A0003C00002010B5044600F006FC0221204667
:1003B00000F081F82046BDE81040FFF7BFBF000005
:1003C00010B50448FFF7EEFFBDE810400248FFF704
:1003D000E9BF0000140000203C000020014800F0AC
:1003E0001FBC000004020020014800F019BC0000FE
:1003F00044010020014800F013BC0000A4010020CB
:10040000014800F00DBC0000E40000200168182342
:10041000CAB2103AB2FBF3F2054B6FF30901032A9B
:100420009B5CC36500D9091D8165084670470000C3
:100430007024000810B5014600208B698A6A4FF0CD
:10044000C07453B1B3F5005F15D072B1012A0CD05E
:10045000022A0AD0032A09D104E01AB1012A06D0DF
:10046000022A03D1C96AC90100D5012010BDC96A99
:10047000A142FAD010BD002AF7D0012AF2D0022AF8
:10048000F3D0032AF3D010BD30B50468256825F4F5
:1004900080252560046863608368402B036803D06F
:1004A00099600068C26030BD9A600068C16030BD6C
:1004B000704772B6FEE790F82020012A07D0022A82
:1004C00005D0416A41F480214162012070470068F3
:1004D00042690A43426100207047000010B590F85D
:1004E0002020012A07D0022A05D0416A41F4802148
:1004F0004162012010BD3B48D0F8002242F00102C9
:10050000C0F80022D0F8002222F47C52C0F8002269
:10051000D0F800224B6A42EA0322C0F800220A7D8A
:1005200002F01F0301229A40D0F81C329343C0F816
:100530001C32CB69B3B9D0F80C329343C0F80C32FB
:100540008C894B6864F31F434C6900EBC404C4F806
:1005500040320C890B6864F31F434C6900EBC40400
:10056000C4F84432CB69012B16D1D0F80C321343B6
:10057000C0F80C320C884B6864F31F434C6900EBE5
:10058000C404C4F840320C89CB6864F31F434C693F
:1005900000EBC404C4F844328B69002BD0F8043259
:1005A0000ED01343C0F804320B69002BD0F814327C
:1005B00008D01343C0F81432096A012904D008E0B6
:1005C0009343EFE79343F5E7D0F81C121143C0F8CB
:1005D0001C12D0F8001221F00101C0F80012002016
:1005E00010BD000000640040704730B590F8204016
:1005F000012C05D0022C03D0416A41F480215DE03A
:100600000468002955D02469A40754D04FF4D87445
:10061000056804EB01142D5915F004059560056873
:100620002D594ED0ED08556005682C5904F0020490
:10063000D4604FF4DA74056804EB01142D5905F009
:100640000F05156105682D59C5F3072595610568E6
:100650002C59240C54614FF4DC72046802EB011233
:10066000A4581C700468A458240A5C700468A45838
:10067000240C9C700468A258120EDA704FF4DE72DB
:10068000046802EB0112A4581C710468A458240ADF
:100690005C710468A458240C9C710468A258120E62
:1006A000DA71006881B1016941F020010161002027
:1006B00030BDE468A8E7416A41F4001141620120BD
:1006C00030BD6D0D1560AFE7C16841F02001C1601C
:1006D000EDE72DE9F05F0546006800244669D0F893
:1006E00004908768D0F80CB0D0F810A0D0F818802B
:1006F000F10748D0F90714D001218160B80703D56C
:10070000284600F086FA0CE0780702D54FF4006422
:1007100007E0380702D54FF4805402E0284600F085
:1007200077FAF80516D529684FF480708860B80507
:1007300003D5284600F06FFA0CE0780502D544F4A2
:10074000005407E0380502D544F4804402E028460E
:1007500000F060FAF80316D529684FF480308860FD
:10076000B80303D5284600F058FA0CE0780302D508
:1007700044F4004407E0380302D544F4803402E036
:10078000284600F049FA300707D55FEACB6004D568
:100790002968102044F40074C86070074FF00807FF
:1007A00007D55FEA0B7004D52868C760284600F0BB
:1007B000A9F9B00706D52868C068800702D0284686
:1007C00000F0A2F9700607D55FEACA6004D529686F
:1007D000102044F480640861B00607D55FEA0A700F
:1007E00004D528680761284600F0E2F9F00606D52E
:1007F00028680069800702D0284600F0DAF9B003C3
:1008000008D55FEAC96005D52968102048602846E8
:1008100000F0D0F9F00307D55FEA097004D5286825
:100820004760284600F0FAF9300446D55FEA49707F
:1008300040D5F00504D55FEAC87001D044F001044A
:10084000B00504D55FEA887001D544F00204700554
:1008500004D55FEA487001D544F00404300529D579
:1008600018F0700F26D008F07000402815D006DC74
:10087000102809D020280AD0302816D10AE05028A4
:100880000ED0602811D10EE044F008040DE044F0D1
:1008900010040AE044F0200407E044F0400404E0BF
:1008A00044F0800401E044F480742868816921F0F8
:1008B00070018161296804204860002C05D0686AB5
:1008C000204368622846FFF78FFEBDE8F09F70B5B1
:1008D000040003D094F8200010B104E0012070BDA2
:1008E000204600F081F82068016821F002010160D3
:1008F00000F0F6FB0546052604E000F0F1FB401B86
:100900000A2811D8206840688007F6D4206801685A
:1009100041F00101016000F0E3FB05460BE000F04F
:10092000DFFB401B0A2806D9606A40F40030606291
:1009300084F82060D2E720684068C007EFD0207EAE
:100940000128206801683DD021F080010160607EAF
:1009500001282068016838D021F040010160A07EA4
:1009600001282068016833D021F020010160E07E79
:100970000128206801682ED041F010010160207F1D
:1009800001282068016829D021F008010160607FFA
:1009900001282068016824D021F004010160D4E915
:1009A00002010843D4E90412114308436168491E57
:1009B00008432168C86100206062012084F820009B
:1009C000002070BD41F08001C0E741F04001C5E763
:1009D00041F02001CAE721F01001CFE741F0080102
:1009E000D4E741F00401D9E7F0B587B004461421FB
:1009F0006846FFF731FC3E4B3E48DFF8F0E01968EF
:100A0000D4F800C03B4A03250226092710300024F1
:100A1000491CF4452AD11960012907D1016841F028
:100A200000710160006800F000700590106840F0EF
:100A3000080010601068CDE9005600F00800CDE90C
:100A4000047069462C48CDE9024500F06DFA002299
:100A50000121142000F0B2FB142000F0A1FB0022C1
:100A60000121152000F0AAFB15203AE0DFF88CE008
:100A7000F44538D1D0F800C04CF0806CC0F800C00C
:100A8000D0F800C001290CF0806CCDF814C01960BA
:100A900007D1016841F000710160006800F000704A
:100AA0000590106840F002001060106802AB00F082
:100AB000020005906020CDE9000683E8B000694699
:100AC0000F4800F031FA00220121402000F076FBAF
:100AD000402000F065FB00220121412000F06EFB68
:100AE000412000F05DFB07B0F0BD00000064004055
:100AF0000000002030380240000C02400068004036
:100B0000000402407047000010B504460068204908
:100B100092B0884205D110AB09AA00211D48FFF709
:100B200064FD1D492068884218D16B4602AA002145
:100B30001A48FFF75AFD029809280FD2DFE800F0A3
:100B40000E0508101316191C2100154A114615E050
:100B5000134A114617E000BFFFF7BAFB12B010BDF1
:100B6000104A11460AE00F4A11460CE00E4A11469F
:100B700004E00D4A114606E00C4A11466846121D73
:100B8000EAE70A4A1146083168460C32E4E70000F9
:100B90000064004014000020006800403C00002079
:100BA00064020020740200208402002094020020CD
:100BB000704770477047000070B5044690F82000F9
:100BC000012804D0606A40F40020606218E002202E
:100BD00084F820002068016821F00101016000F024
:100BE0007FFA05460EE000BF00F07AFA401B0A28A3
:100BF00008D9606A40F400306062052084F8200063
:100C0000012070BD20684068C007EDD1606270BDF2
:100C100070477047704770477047704770470000D3
:100C20002DE9F84304464FF00009CDF800906348E1
:100C30004FF41651A56D0068B0FBF1F72E6894F8DB
:100C40005C10082000FA01F131420FD021680A68D7
:100C500052070BD50A6822F004020A6094F85C106F
:100C60008840A860606D40F00100606594F85C10F9
:100C70004FF0010808FA01F0304208D021684969B4
:100C8000090604D5A860606D40F00200606594F824
:100C90005C1004208840304208D021680968890728
:100CA00004D5A860606D40F00400606594F85C10A5
:100CB00010208840304218D021680968090714D5EF
:100CC000A86020680168490304D50068000308D5BE
:100CD000A16C07E00168C90503D4016821F008018F
:100CE0000160216C09B12046884794F85C102020EF
:100CF0008840304231D021680968C9062DD5A860E6
:100D000094F8350005282068016806D0490347D5C6
:100D1000006800031DD4616C1CE021F01601016025
:100D20002068416921F080014161206C08B9A06C04
:100D300020B12068016821F00801016094F85C107E
:100D40003F208840A86084F8349084F83580216D75
:100D50001FE0E16B09B120468847606D00282BD069
:100D6000606DC00714D0052084F835002068016844
:100D700021F0010101600098401C0090B84203D8A6
:100D800020680068C007F6D184F8349084F8358074
:100D9000E16C002910D001B02046BDE8F0430847BF
:100DA0000168C905D5D4016821F01001016084F8FB
:100DB000349084F83580CCE7BDE8F883100000203B
:100DC0002DE9F041044600F08BF906465CB10025A0
:100DD00084F83450022084F835002068016821F03E
:100DE000010101600DE00120BDE8F08100F078F91B
:100DF000801B052805D920206065032084F8350074
:100E0000F2E720680068C007F0D122681168204826
:100E10000140D4E901031843D4E9033633431843AE
:100E200063691843A3691843E3691843236A1843A5
:100E30000843616A042903D1D4E90B131943084319
:100E4000106020684069666A20F0070130460E4352
:100E5000012704280CD1A06A0643E06A40B120466D
:100E6000FFF7E8FA20B14020606584F83570BAE7F2
:100E7000206846612046FFF7C9FA94F85C203F21BC
:100E800091408160656584F835700020ACE7000012
:100E90003F8010F02DE9F0410446866D90F8340053
:100EA000002501280DD0012084F8340094F8357015
:100EB0000020012F07D084F8340002252846BDE821
:100EC000F0810220FBE7022784F835706065204638
:100ED000FFF7DAFA94F85C103F208840B060206891
:100EE000016841F016010160206C20B120680168A2
:100EF00041F0080101602068016841F001010160D2
:100F0000DCE7000070B5044600F0EAF80546601C16
:100F100002D004480078044400F0E2F8401BA042EC
:100F2000FAD370BD040000202DE9F84F00224FF0E5
:100F3000010803254FF00F0E0B6808FA02F4234056
:100F4000A3426ED14E68012E05D0022E03D0112E81
:100F500001D0122E12D186684FEA420C05FA0CF726
:100F6000BE43CF6807FA0CF7374387604668A6434D
:100F70000C79C4F30014944034434460C6685700AD
:100F800005FA07FC8C6826EA0C06BC403443C460B2
:100F90004C68022C01D0122C13D1D40800EB84042D
:100FA000A346D4F8209054074FEAD46A0EFA0AF602
:100FB00029EA06090E6906FA0AF646EA0906CBF896
:100FC000206006680C7926EA0C0604F00304BC4095
:100FD000344304604C68E40065D5364C266846F41A
:100FE00080462660246822F0030604F480440094BE
:100FF000314C3444A446D4F808489607370F0EFA0B
:1010000007F6B4432D4EB04201D1002624E02C4E09
:10101000B04201D101261FE02A4EB04202D1022681
:101020001AE040E0284EB04201D1032614E0274EDA
:10103000B04201D104260FE0254EB04201D1052671
:101040000AE0244EB04201D1062605E0224EB0420D
:1010500001D1072600E00826BE402643CCF80868E8
:101060001E4E34684F689C43FF0300D51C43346018
:101070001A4C241D26684F689E43BF0300D51E43AB
:101080002660164E083634684F689C43FF0200D530
:101090001C433460114E0C3634684F689C43BF02C9
:1010A00000D51C433460521C102AFFF445AFBDE844
:1010B000F88F000044380240003001400000024038
:1010C0000004024000080240000C024000100240F0
:1010D0000014024000180240001C0240003C014085
:1010E00001488068704700000400002002488168C1
:1010F0000278114481607047040000200B4810B54D
:10110000016841F400710160016841F4806101608F
:10111000016841F480710160032000F06FF8002045
:1011200000F006F800F024F8002010BD003C02405A
:1011300070B50D4D04464FF47A712878B1FBF0F08C
:101140000A490968B1FBF0F000F004FB48B9102C23
:1011500007D200222146501E00F030F800206C60BB
:1011600070BD012070BD00000400002010000020B0
:101170000A4808B5016841F480410160006800F444
:10118000804000900548001F016841F080510160D7
:10119000006800F08050009008BD00004438024014
:1011A000002809DB00F01F02012191404009800066
:1011B00000F1E020C0F8001170470000F0B40E4BC1
:1011C0001B680C46C3F30223C3F10705042D00D9A5
:1011D0000425191D072901D2002300E0DB1E01268A
:1011E00006FA05F1491E214099409E40761E1640A0
:1011F0003143F0BC00F0D1BE0CED00E0064900F038
:10120000070208684FF6FF03184040EA0220034A2D
:1012100010430860704700000CED00E00000FA0584
:101220002DE9F0470E46050065D0DFF81481D8F8A7
:101230000000F7B200F00F00B04207D288F800704B
:10124000D8F8000000F00F00B04254D128683D4C9F
:10125000810712D5400703D5206840F4E050206094
:101260002878000703D5206840F46040206020689B
:10127000A96820F0F000084320602878C0072DD02E
:10128000304968680839012812D0022813D0032891
:1012900011D00968890700292DDA216821F003019E
:1012A00001432160FFF71CFF814641F2883A0EE0BE
:1012B00009688903EFE709688901ECE7FFF710FF88
:1012C000A0EB0901514502D90320BDE8F087206851
:1012D000696800F00C00B0EB810FEFD1D8F8001076
:1012E000404601F00F01B14207D90770006800F0D5
:1012F0000F00B04201D00120E7E72878400705D56C
:101300002068E96820F4E05008432060287800074E
:1013100006D52068296920F4604040EAC1002060B9
:1013200000F038F82168084AC1F30311515CC84045
:101330000649086006480068FFF7FAFE0020C4E787
:10134000003C0240083802407824000810000020C9
:10135000080000200448054900680968044AC1F3F0
:101360008221515CC84070471000002008380240BC
:10137000882400080448054900680968044AC1F344
:101380004231515CC84070471000002008380240CC
:1013900088240008154810B5006810F00C021448A5
:1013A00013D01449042A0FD0082A0ED10F4C241F41
:1013B0002268236802F03F025B0207D52068C0F371
:1013C0008810A0FB010106E0084610BD2168C1F3AA
:1013D0008811A1FB00010023FEF7F4FE2168C1F390
:1013E0000141491C4900B0FBF1F010BD0838024032
:1013F0000024F400001BB7002DE9F84F04006ED064
:101400002078DFF83C93C007A9F104054AD009F120
:1014100004000168C1F38101012908D00068C0F30C
:10142000810002280AD1D9F80000400206D52868B8
:10143000800337D560680028E1D033E06068B0F5FC
:10144000803F10D0B0F5A02F286810D020F4803055
:101450002860286820F4802028606068A8B1FFF721
:101460003FFE06460DE0286840F48030F4E740F483
:1014700080202860F7E700BFFFF732FE801B64285A
:1014800073D828688003F7D50CE0FFF729FE0646DD
:1014900005E000BFFFF724FE801B6428F0D8286811
:1014A0008003F7D42078DFF89C8280074FF0000A91
:1014B0003ED5A348001D016811F00C0F08D000684C
:1014C000C0F3810002280BD1D9F80000400207D4F4
:1014D0002868800716D5E068012800D112E02BE1CA
:1014E000E068B8B10120C8F80000FFF7F9FD064632
:1014F00005E000BFFFF7F4FD801B0228C0D8286874
:101500008007F7D52868216920F0F80040EAC1007B
:1015100028600DE0C8F800A0FFF7E2FD064604E0F1
:10152000FFF7DEFD801B02281FD828688007F7D44C
:101530002078000722D5824E83486169703671B1E8
:1015400001210160FFF7CCFD074604E0FFF7C8FD6D
:10155000C01B022809D830688007F7D50EE0C0F814
:1015600000A0FFF7BDFD074605E082E0FFF7B8FDEC
:10157000C01B02287DD830688007F7D42078400748
:1015800068D5DFF8BCB100270BF13C0BDBF800009D
:10159000C0000BD4DBF8001041F08051CBF80010F4
:1015A000DBF80000012700F080500090674E3068A3
:1015B000C00510D4306840F480703060FFF790FDB3
:1015C000009005E0FFF78CFD0099401A022850D8E2
:1015D0003068C005F6D55A4EA0686C3601280FD089
:1015E0000528306810D020F001003060306820F00D
:1015F00004003060A068B8B1FFF772FD00900FE002
:10160000306840F00100F4E740F004003060F7E794
:10161000FFF766FD0099411A41F28830814266D891
:1016200030688007F4D50EE0FFF75AFD009007E020
:10163000FFF756FD0099411A41F28830814256D891
:1016400030688007F4D42FB1DBF8001021F080510E
:10165000CBF80010A069C8B33949091D0968C1F366
:10166000810102294AD00228504607D0C8F86000FC
:1016700000E03CE0FFF734FD04463BE04746C8F895
:101680006000FFF72DFD064605E000BFFFF728FDCF
:10169000801B02282BD828688001F7D4D4E90701E1
:1016A0000843A16A2A4A490802EB0141626A41EAF9
:1016B0008211084394F82C1040EA0161C9F8001027
:1016C00001203866FFF70CFD044606E036E000BF57
:1016D000FFF706FD001B022809D828688001F7D50E
:1016E0002CE000BFFFF7FCFC001B022802D90320FE
:1016F000BDE8F88F28688001F4D41FE00128F7D0F6
:10170000D9F80000E26900F48001914214D1226A04
:1017100000F03F0191420FD147F6C071626A01406B
:10172000914209D1A26A00F44031914204D1E16AA8
:1017300000F07060884201D00120D9E70020D7E78F
:101740000438024000004742800E474200700040CB
:101750000000FFFF10B5401EB0F1807F01D30120D3
:1017600010BD4FF0E02460610F21601700F015FC00
:101770000020A06107202061002010BD704770B5D7
:10178000040004D094F83900002510B106E00120CF
:1017900070BD84F83850204600F022F8242084F8E8
:1017A00039002068C16821F40051C160204600F072
:1017B0002DFB2068016921F4904101612068416995
:1017C00021F02A0141612068C16841F40051C160E3
:1017D000E563202084F8390084F83A00002070BDC9
:1017E0002DE9F04F87B0044614216846FEF734FD1A
:1017F0005B485A4B22685A491438022603270025B1
:101800004FF040094FF4003B4FF4806A9A4258D1A0
:101810000A6842F010020A60096801F0100105919F
:10182000016841F002010160016801F002010591C7
:10183000016841F001010160006802AA00F00100A6
:1018400005908020CDE900064FF0070882E8A0014E
:1018500069464448FFF768FB3002CDE9000602AA5A
:10186000694682E8A0014048FFF75EFB404E3F48D2
:101870004FF00068C6E9035A7561B561F5613562DC
:10188000756286E8010357463046FFF799FA08B1BA
:10189000FEF70FFE26633548B463354E7838603660
:1018A0003060C6E90185C6E903577561B561C6E9CF
:1018B000075B3046756249E06663B46307B0BDE814
:1018C000F08F2C4B9A42F9D10A6842F020020A604C
:1018D000096801F020010591016841F040010160B3
:1018E0000068029500F0400005904FF48440CDE977
:1018F00000060820CDE9037069461F48FFF714FB76
:101900001B4E1A48C0361838C6E9035A7561B561CE
:10191000F56135624FF02068756286E8010357462D
:101920003046FFF74DFA08B1FEF7C3FD2663B463F6
:101930000E48124E90383060C6E90185C6E903575B
:101940007561B561C6E9075B30467562FFF738FA25
:101950000028B1D0FEF7ADFDAEE700000010014059
:10196000443802400004024000000240B8640240D3
:10197000E40000200014014000180240040200208E
:10198000F8B5044690F83A0020283CD1C1B3BAB368
:1019900094F83800012836D0012084F83800A1627C
:1019A000A2850025E563222084F83A00636B17487E
:1019B000D863636B16481864636B1648D864606B11
:1019C000134605650846666B216802463046091DC8
:1019D000FFF760FA206801684168009184F8385088
:1019E000C16841F48071C1602068416941F0010122
:1019F00041612068416941F0400141610020F8BD2A
:101A0000FFE70120FBE70220F9E70000971D00082F
:101A1000D31D00084D1D0008704770472DE9F8439D
:101A2000044690F839001F4616460D46202850D12E
:101A3000B5B1AEB194F8380001284AD0012084F83D
:101A400038004FF00008C4F83C80212084F83900A9
:101A5000FFF746FBA6848146E68484F8388026E0BA
:101A60000120BDE8F883E08C401EE084A0684B466E
:101A7000B0F5805F4FF000024FF0800120460097E4
:101A800003D000F057FAE8B90DE000F053FAC8B9F6
:101A900028882168C0F308004860206908B16D1CDF
:101AA00005E0AD1C03E0216815F8010B4860E08CEF
:101AB0000028D8D14B46002240212046009700F054
:101AC00039FA08B10320CCE7202084F8390000203F
:101AD000C7E70220C5E7FEE70F4810B50D490160D2
:101AE0000321416000214FF410228160C0E90312FC
:101AF0004FF400124261017641768176C17601771A
:101B00004177FEF7E4FE002803D0BDE81040FEF761
:101B1000D0BC10BD00640040140000200F4810B578
:101B20000D4901600321416000214FF410228160C2
:101B3000C0E903124FF400124261017641768176CA
:101B4000C17601774177FEF7C2FE002803D0BDE8D9
:101B50001040FEF7AEBC10BD006800403C00002005
:101B6000154808B5016841F4800101600068002251
:101B700000F48000009011463920FFF71FFB392048
:101B8000FFF70EFB002211463A20FFF717FB3A2021
:101B9000FFF706FB002211464520FFF70FFB45200B
:101BA000FFF7FEFA002211464620FFF707FBBDE8CB
:101BB00008404620FFF7F4BA30380240154808B50F
:101BC000016841F002010160016801F00201009129
:101BD000016841F040010160016801F0400100919D
:101BE000016841F001010160016801F0010100910B
:101BF000016841F008010160016801F008010091ED
:101C0000016841F080010160006800F080000090F0
:101C100008BD0000303802400C4810B50A49016088
:101C20000B494160002181600C22C160C0E90412AF
:101C30008161C161FFF7A3FD002803D0BDE810401A
:101C4000FEF737BC10BD000000100140640000200A
:101C5000003E49000C4810B50A4901600B4941603B
:101C6000002181600C22C160C0E904128161C16160
:101C7000FFF785FD002803D0BDE81040FEF719BC32
:101C800010BD000000140140A4000020003E4900E7
:101C9000FEE7FEE770477047FFF728BA30B593B00C
:101CA00030216846FEF7D8FA14210CA8FEF7D4FAC2
:101CB0001D480025016841F080510160006800F076
:101CC000805011901948016841F48041016000681A
:101CD000022400F480401190012000900004019043
:101CE0008001CDE9064006200890A820CDE909042E
:101CF00004200B906846FFF77FFB08B172B6FEE741
:101D00000CA90F2081E831004FF4A0500F904FF440
:101D10008050109005210CA8FFF782FA002801D00E
:101D200072B6FEE713B030BD40380240007000408C
:101D30000548016841F47001016003494FF00060FB
:101D4000803908607047000088ED00E070B5846B52
:101D50002068406994F83910C0F3C010002521298B
:101D600004D118B1E584204600F046F820684069A7
:101D700094F83A10C0F38010222904D118B1E585F7
:101D8000204600F02BF8E06B40F01000E0632046A6
:101D9000FFF7F4FC70BD10B50146806B0968096857
:101DA000C90513D40021C1850168CA6822F4807274
:101DB000CA6001684A6922F001024A6101684A6901
:101DC00022F040024A61202180F83A10FFF724FEF9
:101DD00010BD10B5806BFFF720FE10BD0168CA680A
:101DE00022F49072CA6001684A6922F001024A61D5
:101DF000202180F83A1070470168CA6822F0C002BA
:101E0000CA60202180F83910704700002DE9F041A8
:101E1000044600680169E26821F440511143016100
:101E20002169A068E2690843616911430843216898
:101E3000CA6849F20C639A430243CA602068416948
:101E4000A26921F4407111434161E06919276425B9
:101E50003226B0F5004F354A354920684FF000086A
:101E600006D0884201D0904236D1FFF783FA35E0A0
:101E7000884201D0904202D1FFF77CFA01E0FFF7DF
:101E800069FA61684A18A0FB070148EB0803FEF7EE
:101E900099F90146B0FBF5F00201B1FBF5F06FF0E6
:101EA0001803584301EB800006EBC000B0FBF5F0CF
:101EB00000F0F80002EB4002B1FBF5F0584301EBF3
:101EC000800006EBC000B0FBF5F000F007002168D1
:101ED00010448860BDE8F081FFF73CFA61688B0F21
:101EE0008A00A0FB0701FEF76DF90146B0FBF5F093
:101EF0006FF01802504301EB800006EB0010B0FBBE
:101F0000F5F000F0F002B1FBF5F002EB0012B1FBCE
:101F1000F5F06FF01803584301EB800006EB00105A
:101F2000B0FBF5F000F00F00D1E700000014014015
:101F3000001001402DE9F041984617460E46044630
:101F4000069D1DE0681C1BD02DB1FFF7C9F8A0EB62
:101F50000800A84214D92068C16821F4D071C1607A
:101F60002068416921F001014161202084F8390095
:101F700084F83A00002084F838000320BDE8F0819E
:101F80002068006836EA000004D00020B842D9D0AA
:101F90000020F3E70120F9E7FEE70907090E002812
:101FA00004DB00F1E02080F80014704700F00F001F
:101FB00000F1E02080F8141D704702E008C8121FED
:101FC00008C1002AFAD170477047002001E001C122
:101FD000121F002AFBD17047F0B586464FF0FF3044
:101FE00000230B4DC70710E05EF823603A4600243B
:101FF00000284FEA400000DA6840164200D06840EE
:102000005208641C202CF3D35B1C8B42ECD3F0BD34
:10201000B71DC1042DED048BFFF770F8FFF73EFEEE
:10202000FFF7CCFDFFF79CFDFFF756FDFFF776FDB0
:10203000FFF7F2FDFFF70EFEFEF7C2F99FED248ACF
:10204000DFED248A9FED249A4FF47A74B0EE001AE3
:10205000F0EE480AB0EE680A204800F043F800218C
:102060001F4800F051F82046FEF74CFFB0EE001A72
:10207000F0EE480AB0EE490A184800F033F80021A3
:10208000174800F041F82046FEF73CFFB0EE001A7A
:10209000F0EE480AB0EE680A104800F023F801217B
:1020A0000F4800F031F82046FEF72CFFB0EE001A82
:1020B000F0EE480AB0EE490A084800F013F8012192
:1020C000074800F021F82046FEF71CFFBEE700009D
:1020D000CDCCCC3D82B3E441A186AB42A40200202A
:1020E00064000020222140F8221F0A21C18010EE46
:1020F000901A416111EE101A816110EE101A0161FF
:102100000021C160816070472DE9F04F06462DED3A
:10211000088BA3B00D4600244FF0FE09C748DFF836
:1021200020834FF0EE0A4FF0FF0BDFEDC6AA9FEDC4
:10213000C6BA9FEDC68A9FEDC69ADFEDC69A9FED9F
:10214000C6AADFEDC68A86427ED188F8009088F85C
:1021500001A088F8025088F8034098F8280088F811
:10216000040088F805B088F8064088F80740C8F8E9
:102170000840D8F82A00072100EE100A20EE2A0AAB
:10218000BDEEC00A10EE100AA8F80C00D8F82E0018
:1021900000EE100A20EE0B0ABDEEC00A10EE100A87
:1021A000A8F80E00D8F8320000EE100AC0EE080AB7
:1021B00020EE890ABDEEC00A10EE100AC8F8100021
:1021C000D8F8360000EE100A20EE290ABDEEC00A4B
:1021D00010EE100AA8F81400D8F83A0000EE100A21
:1021E00020EE0A0ABDEEC00A10EE100AA8F816008A
:1021F00088F8184088F81940D8F83E00C8F81A0046
:102200004046FFF7E9FEC8F81E002222414615A805
:10221000FEF709F80323222215A98848FFF7FEFBE1
:102220000A20FEF76FFE4E2201A98448FFF7A8FBA3
:1022300008F184009DF8062082709DF80B10C17192
:10224000BDF810305BBA00E03CE01BB28381BDF802
:1022500022709DF824C07FBA3F0447EA0C279DF8FE
:1022600025C047EA0C074FEAE37C03EB1C631B1213
:1022700000EE103AC0F8227080F85220B8EEC00A82
:10228000816510EE103A00EE107AC365B8EEC00A10
:1022900020EE280A20EE080ABDEEC00AB8EEC00AF9
:1022A00010EE107A476622B1012A04D0022A7DD0AE
:1022B00008E06B4801E06A48883080F85220816568
:1022C000C36547666748864271D15D4E0721423635
:1022D00006F8029B06F801AC3570747096F826007B
:1022E000B07086F803B034717471C6F80640B06AF5
:1022F00000EE100A20EE2A0ABDEEC00A10EE100A07
:102300007081F06A00EE100A20EE0B0ABDEEC00AE2
:1023100010EE100AB081306B00EE100AC0EE080A11
:1023200020EE890ABDEEC00A10EE100AC6F80E00B3
:10233000706B00EE100A20EE290ABDEEC00A10EE06
:10234000100A7082B06B00EE100A20EE0A0ABDEE91
:10235000C00A10EE100AB0823948B4758030F475A6
:102360000068C8F85C0036484230FFF735FE344953
:10237000F0612222423101A8FDF755FF03232222FA
:1023800001A93848FFF74AFB0A20FEF7BBFD4E22A1
:102390000AA93448FFF7F4FA334B9DF82A209A70C3
:1023A0009DF82F40DC71BDF8340001E03EE038E0DC
:1023B00040BA00B29881BDF846109DF8485049BA1D
:1023C000090441EA05259DF849100D43C11700EBAA
:1023D0001160001200EE100AC3F8225083F8522058
:1023E000B8EEC00A9C6510EE101A00EE105AD965BE
:1023F000B8EEC00A20EE280A20EE080ABDEEC00A98
:10240000B8EEC00A10EE100A586692B1012A13D035
:10241000022A06D103F5CC7383F852209C65D96556
:10242000586623B0BDEC088BBDE8F08F0E488838A5
:1024300043E70D4B8833EFE70C4BEDE764000020DA
:10244000A40200200000804300000043F90FC940AF
:1024500000008046000000450000804400008038F5
:10246000B0030020A40000204805002058060020EA
:102470000006101600061016000000000000000004
:10248000010203040607080900000000010203041A
:10249000B02400080000002014000000BA1F00084B
:1024A000C424000814000020540B0000CA1F0008B8
:1024B000000000000100000010000000000000000B
:0424C0000024F40000
:040000050800018965
:00000001FF
