:020000040800F2
:10000000E8D100205D020008AB470008293800084D
:10001000A9470008650A000879650008000000008B
:100020000000000000000000000000009D0100082A
:10003000270F000800000000F9010008A75D000874
:1000400077020008770200087702000877020008AC
:100050007702000877020008290F000877020008DD
:10006000770200082F0F0008350F000877020008FC
:10007000770200087702000877020008770200087C
:10008000770200087702000877020008770200086C
:10009000690A0008750A0008770200083B0F00088B
:1000A000770200087702000877020008770200084C
:1000B000770200087702000877020008770200083C
:1000C000770200087702000877020008770200082C
:1000D00077020008316500087702000877020008FF
:1000E000770200087702000877020008770200080C
:1000F00077020008770200087702000877020008FC
:1001000077020008770200087702000877020008EB
:1001100077020008770200087702000877020008DB
:1001200077020008390B0008450B00087702000829
:1001300077020008770200087702000877020008BB
:10014000810A00088D0A000877020008770200087B
:10015000190E0008250E0008310E00083D65000844
:10016000770200087702000877020008770200088B
:1001700077020008770200087702000800000000FC
:100180007702000877020008DFF80CD000F07AFA56
:100190000048004791740008E8D100202C4B1968F2
:1001A0000868B0E8F04F80F30988BFF36F8F4FF015
:1001B000000080F3118870470000000008480068C4
:1001C000006880F308884FF0000080F3148862B65E
:1001D00061B6BFF34F8FBFF36F8F00DF00BF00BF6B
:1001E00008ED00E0DFF80C00016841F470010160E7
:1001F000704700BF88ED00E0EFF30980BFF36F8F19
:10020000134B1A681EF0100F08BF20ED108A20E96A
:10021000F04F106009B44FF0500080F31188BFF325
:100220004F8FBFF36F8F08F01BF84FF0000080F383
:10023000118809BC19680868B0E8F04F1EF0100F6B
:1002400008BFB0EC108A80F30988BFF36F8F704746
:1002500068000020EFF305807047000006488047E3
:1002600006480047FEE7FEE7FEE7FEE7FEE7FEE79B
:10027000FEE7FEE7FEE7FEE7555E0008890100089D
:100280002DE9F05F0546002092469B4688460646CB
:10029000814640241BE0284641464746224600F05E
:1002A000FBF853465A46C01A914110D311461846DE
:1002B000224600F0E2F82D1A67EB01084F4622466D
:1002C0000120002100F0D9F817EB00094E41201E53
:1002D000A4F10104DFDC484631462A464346BDE826
:1002E000F09F40EA01039B0703D009E008C9121FF1
:1002F00008C0042AFAD203E011F8013B00F8013BE0
:10030000521EF9D27047D2B201E000F8012B491E0B
:10031000FBD270470022F6E710B513460A460446A2
:100320001946FFF7F0FF204610BD421C10F8011BD4
:100330000029FBD1801A70472DE9FE4F81EA0304A2
:1003400004F0004421F0004100944FF0000B23F032
:10035000004350EA01045ED052EA03045BD0C3F3C9
:100360000A54C1F30A552C44A4F2F3340194A0FBBF
:100370000254C1F3130141F48011C3F3130343F496
:10038000801301FB024400FB034E840A970A44EAEF
:10039000815447EA8357A4FB076802958D0A05FB41
:1003A00007854FEA932C04FB0C542705029D4FEA66
:1003B000065847EA1637B5EB08056EEB070C870EB3
:1003C000920E47EA811742EA8312A7FB0201B6EBBD
:1003D0000B0164EB00042B0D43EA0C335E1844EB75
:1003E0001C50DA465146E7FB0201C5F313044FEAFD
:1003F0000B3343EA14534FEA0432019C43EA0603E9
:10040000A4F10C040294009CCDE900B400F09AF829
:1004100003B0BDE8F08F00200146F9E700F000428C
:1004200030F000400AD0C10D01F56071C0F3160034
:1004300042EA0151C20840071143704700200146BB
:10044000704701F0004330B421F0004150EA01024E
:1004500006D00A0DA2F56072C1F31301002A02DC76
:1004600030BC00207047440F44EAC104C100E018CA
:1004700030BC00EBC25000F01FB8202A04DB203A49
:1004800000FA02F1002070479140C2F1200320FAE7
:1004900003F3194390407047202A04DB203A21FAE5
:1004A00002F00021704721FA02F3D040C2F120028D
:1004B00091400843194670470029A8BF7047401C67
:1004C000490008BF20F00100704710B4B0FA80FC6A
:1004D00000FA0CF050EA010404BF10BC704749B1A7
:1004E000CCF1200421FA04F411FA0CF118BF012117
:1004F00021430843A3EB0C01CB1D4FEA00614FEAF7
:10050000102042BF002010BC704700EBC3501044C5
:100510000029A4BF10BC7047401C490008BF20F050
:10052000010010BC704710B5141E73F1000408DA06
:10053000401C41F1000192185B411A4301D120F0A7
:10054000010010BD2DE9F04D92469B4611B1B1FA64
:1005500081F202E0B0FA80F220329046FFF78DFF80
:1005600004460F4640EA0A0041EA0B0153465A4648
:10057000084313D0114653EA010019D0C8F14002D4
:100580005046FFF789FF05460E46504659464246FB
:10059000FFF773FF084305D0012004E020463946E9
:1005A000BDE8F08D0020054346EAE0762C43374352
:1005B0000A986305E40AA0EB08000022FD0A44EA59
:1005C00047540A3002D500200146E9E70105101919
:1005D0006941DDE9084500196941BDE8F04DA2E730
:1005E0002DE9F04D00231A461B1A8A4103DB002037
:1005F0000146BDE8F08DC1F30A52C1F3130141F485
:1006000080154FF0000BD10702D100186D41521E2A
:100610000027044640F2FF11384601EB620A3E46CD
:100620008046024600204FF48011FFF735FFC219C3
:100630007141BB1846EB0100B4EB030C75EB000CE9
:1006400004D3E41A65EB000517460E46241908F199
:1006500001006D4180463428E3DDF91946EB0600C0
:10066000091BA84103D24FF0FF32134601E00022DC
:1006700013461BEB070046EB0A51BDE8F04DFFF7B0
:1006800052BF0000064C074D06E0E06840F0010351
:1006900094E8070098471034AC42F6D3FFF778FD92
:1006A000C8870008E8870008B7EE000A80ED000A56
:1006B0009FED040A80ED010A80ED020A80ED030A35
:1006C000704700000000000093EC033AD2EC031ADC
:1006D00091EC030A03F0CCBD01221021014801F086
:1006E000CFBB00000000024000221021014801F0B1
:1006F000C7BB000000000240704700000122114605
:10070000014801F0BDBB00000004024000220121AD
:10071000014801F0B5BB00000004024030B5437849
:1007200004781B021BB2234300EE103A194CB8EEBA
:10073000C00AD4ED000A20EE200A81ED000AC37839
:1007400085781B021BB22B4300EE103AD4ED000A51
:10075000B8EEC00A20EE200A81ED010A437904793F
:100760001B021BB2234300EE103AB8EEC00A20EE83
:10077000200ADFED090A81ED020AD0F8060020F018
:100780007F4000EE100AB8EE400A20EE200A82ED0B
:10079000000A30BD1000002000401C42704730B5F8
:1007A000057865F30703457865F30F23857865F3CE
:1007B0001743C57865F31F63057965F30704457929
:1007C00065F30F248579C07965F3174460F31F64DE
:1007D0000B60146030BD06F0A3BE06F053BC0000F1
:1007E00010B542780378120212B21A4300EE102AB2
:1007F000124BB8EEC00AD3ED010A20EE200A81EDBB
:10080000000AC2788478120212B2224300EE102A43
:10081000D3ED010AB8EEC00A20EE200A81ED010AEC
:1008200042790079120212B2024300EE102AB8EEA9
:10083000C00A20EE200A81ED020A10BD100000203F
:1008400010B5FFF759FFFFF7A9FF06F079F908B1D6
:10085000802402E006F0CCF8044606F08FFB10B1CD
:1008600044F0400010BD06F01BFB204310BD00000B
:100870002DE9FC410746002016460D4600900190E8
:10088000FFF732FF922000F0BDF8062269461220E1
:1008900000F09AF8FFF720FF9DF801009DF8001086
:1008A000000200B2084300EE100A464CB8EEC00A3F
:1008B000D4ED000A20EE200A85ED000A9DF8030021
:1008C0009DF80210000200B2084300EE100AD4EDB9
:1008D000000AB8EEC00A20EE200A85ED010A9DF854
:1008E00005009DF80410000200B2084300EE100A53
:1008F000B8EEC00A20EE200A85ED020AFFF706FFD7
:1009000008226946002000F05FF8FFF7F7FE9DF827
:1009100000000F2830D19DF803009DF8021000025E
:1009200000B2084300EE100AD4ED010AB8EEC00A86
:1009300020EE200A87ED000A9DF805009DF80410BE
:10094000000200B2084300EE100AD4ED010AB8EE2E
:10095000C00A20EE200A87ED010A9DF807009DF8E5
:100960000610000200B2084300EE100AB8EEC00AFA
:1009700020EE200A87ED020AFFF7B6FEA22000F063
:1009800041F802226946222000F01EF8FFF7A4FE7B
:100990009DF800009DF80110C00040EA5110B0F52C
:1009A000806F01DBA0F5006000EE100AB4EE001AC3
:1009B000F8EEC00AB3EE070A00EE810A86ED000ADF
:1009C000BDE8FC811000002070B514460D4640F0D3
:1009D000800000F017F806E0552000F013F8641EC0
:1009E00005F8010BE4B2002CF6D170BD10B50C4631
:1009F00040F0800000F006F8552000F003F8207069
:100A000010BD000001B582B04FF47A700090012350
:100A100001AA02A9024802F047FA9DF804000EBD9F
:100A2000F803002002784078D20042EA5010B0F576
:100A3000806F01DBA0F5006000EE100AB4EE001A32
:100A4000F8EEC00AB3EE070A00EE810A81ED000A53
:100A5000704710B50C46FFF7D5FF2046BDE81040A3
:100A6000FFF7D0BFFEE70000014800F0C8BB000060
:100A700054030020014800F0C2BB000054030020D2
:100A8000014800F0BCBB00007C030020014800F0DE
:100A9000B6BB00007C030020F0B50746006814498F
:100AA000002401250E2695B088420DD10494CDE98D
:100AB0000856059401940294009469460D480394E5
:100AC000CDE9064500F050FA0B49386888420DD14F
:100AD000CDE90E4612950B940C940A940AA9074886
:100AE00013960D94CDE9104500F03EFA15B0F0BD17
:100AF0000064004054030020006800407C03002094
:100B000010B5044600F031FE0221204600F01AFA2A
:100B10002046BDE81040FFF7BFBF000010B50448F5
:100B2000FFF7EEFFBDE810400248FFF7E9BF000005
:100B3000540300207C030020014800F061BE000047
:100B4000F00600202DE9F05FAB48AC4BAC4CC06C1C
:100B5000AA4DAB4EA94F0068A849DFF8A492DFF870
:100B60009CA2DFF89CB2DFF894E2A54A483B6034CF
:100B700018351836303F09F178090AF1300A4FF478
:100B8000006C0BF1300BAEF1180E884223D99B4953
:100B9000543926E0A84233D14FF020080AE05045EE
:100BA00035D1E04606E000BF4FF4001802E000BF78
:100BB0004FF0006811EA080F7CD09049884253D961
:100BC000904205D0984203D0A04201D0A8422FD134
:100BD0004FF0200C45E08A49A831884203D9874963
:100BE0005839096805E08649483188428549F8D96D
:100BF00049689042D0D09842CED0A042CCD0C9E72C
:100C0000B042CED0B842CCD04845CAD0C7E758454C
:100C1000CAD07045C8D0DFF8E88108F19008404597
:100C2000C2D0DFF8D88108F148084045C0D1BBE701
:100C3000B04216D0B84214D0484512D0504510D01A
:100C4000584509D0704507D06D499031884203D08E
:100C50006A494831884202D14FF4001C01E04FF04C
:100C6000006C66484C382AE06549A831884229D989
:100C7000904205D0984203D0A04201D0A84202D1B0
:100C80004FF0200C19E0B04217D0B84215D04845BB
:100C900013D0504511D0584509D0704507D0584958
:100CA0009031884203D055494831884203D14FF4EE
:100CB000001C02E09DE04FF0006C50485038C0F836
:100CC00000C052E04E494831884227D9904205D0B1
:100CD000984203D0A04201D0A84202D14FF0200C8C
:100CE00018E0B04216D0B84214D0484512D0504552
:100CF00010D0584509D0704507D0414990318842FD
:100D000003D03E494831884202D14FF4001C01E033
:100D10004FF0006C3B48C0F80CC026E0904205D074
:100D2000984203D0A04201D0A84202D14FF0200C3B
:100D300018E0B04216D0B84214D0484512D0504501
:100D400010D0584509D0704507D02D4990318842C0
:100D500003D02A494831884202D14FF4001C01E0F7
:100D60004FF0006C2748C0F808C0274C2078800757
:100D70000CD5207820F002002070207840F004008C
:100D8000207001221146214801F07AF86078204D48
:100D900080070CD5607820F002006070607840F029
:100DA0000400607001221021284601F069F8A07843
:100DB00080070CD5A07820F00200A070A07840F049
:100DC0000400A07001221021284601F059F806F015
:100DD000CBF9207840070CD5207820F00400207053
:100DE000207840F0080020700A48016841F00101B5
:100DF0000160BDE8F09F0000F80300205864024045
:100E00001060024000600240C80000200004024060
:100E100000000240103C0140014800F0F1BC00001D
:100E200030060020014800F0EBBC000090060020D6
:100E3000014800F0E5BC0000D005002001680A4B25
:100E4000CAB2103AA3FB02321209084B9B5CC3657D
:100E5000032A04D96FF30901091D816502E06FF3CC
:100E600009018165806D7047ABAAAAAA7287000844
:100E7000014600208A6A8B69002B0FD0B3F5005F12
:100E80001DD08AB3012A30D0022A2ED0032A04D1E1
:100E9000C96A11F0807F00D0012070471AB1012A81
:100EA00007D0022AF9D1C96A11F0807FF5D001205C
:100EB0007047C96AB1F1C07FFAD1012070475AB1B9
:100EC000012A0BD0022A07D0032AF7D1C96AB1F14F
:100ED000C07FF3D10120704701207047C96A11F02B
:100EE000807FFAD001207047FFE70120704710B4DF
:100EF000D0F800C0DCF8004024F48024CCF8004096
:100F0000D0F800C0CCF804308368402B05D00368CB
:100F100099600068C26010BC704703689A600068FE
:100F2000C16010BC70477047012000F071BE0820FE
:100F300000F06EBE102000F06BBE202000F068BEF6
:100F400072B6FEE790F82020012A07D0022A05D0C9
:100F5000416A41F480214162012070470068426982
:100F6000114341610020704790F82020012A07D0EA
:100F7000022A05D0416A41F4802141620120704774
:100F80004248D0F8002242F00102C0F80022D0F816
:100F9000002222F47C52C0F80022D0F800224B6AD2
:100FA00042EA0322C0F800220A7D012302F01F0258
:100FB00003FA02F2D0F81C329343C0F81C32CB691A
:100FC000D3B9D0F80C329343C0F80C32B1F80CC04E
:100FD0004B686CF31F43D1F814C000EBCC0CCCF879
:100FE0004032B1F808C00B686CF31F43D1F814C04D
:100FF00000EBCC0CCCF84432CB69012B1AD1D0F8E1
:101000000C321343C0F80C32B1F800C04B686CF3DB
:101010001F43D1F814C000EBCC0CCCF84032B1F82F
:1010200008C0CB686CF31F43D1F814C000EBCC0CA4
:10103000CCF844328B697BB1D0F804321343C0F84A
:1010400004320B6973B1D0F814321343C0F8143270
:10105000096A01290CD010E0D0F804329343C0F89B
:101060000432EEE7D0F814329343C0F81432EFE7BD
:10107000D0F81C121143C0F81C12D0F8001221F055
:101080000101C0F800120020704700000064004019
:10109000704710B490F820C0BCF1010F09D0BCF12A
:1010A000020F06D0416A41F48021416210BC012048
:1010B000704739B1D0F800C0DCF810C01CF0030F45
:1010C0007DD006E0D0F800C0DCF80CC01CF0030FA7
:1010D0007BD04FF4D87C04680CEB011C54F80C4016
:1010E00004F004049460002C7DD0046854F80C4093
:1010F000E4085460046854F80CC00CF0020CC2F808
:101100000CC04FF4DA7C04680CEB011C54F80C4062
:1011100004F00F041461046854F80C40C4F307246D
:101120009461046854F80CC04FEA1C4CC2F814C017
:101130004FF4DC72D0F800C002EB01125CF802C080
:1011400083F800C0D0F800C05CF802C04FEA1C2C45
:1011500083F801C0D0F800C05CF802C04FEA1C4C14
:1011600083F802C0D0F800C05CF80220120EDA70DA
:101170004FF4DE72D0F800C002EB01125CF802C03E
:1011800083F804C0D0F800C05CF802C04FEA1C2C01
:1011900083F805C0D0F800C05CF802C04FEA1C4CD0
:1011A00083F806C0D0F800C05CF80220120EDA7195
:1011B000F9B10068016941F02001016102E00BE032
:1011C00003E010E010BC00207047416A41F40011B8
:1011D000416210BC01207047416A41F40011416234
:1011E00010BC01207047046854F80C40640D146072
:1011F00080E70068C16841F02001C160DEE72DE9A9
:10120000F05F0546002428684669D0F80490876896
:10121000D0F80CA0D0F810B0D0F8188016F0010F5C
:1012200054D017F0010F17D00121816017F0020F81
:1012300003D0284600F0CCFA0EE017F0040F02D0DD
:101240004FF4006408E017F0080F02D04FF4805408
:1012500002E0284600F0BBFA17F4807F19D0296815
:101260004FF48070886017F4007F03D0284600F0A8
:10127000B1FA0EE017F4806F02D044F4005408E095
:1012800017F4006F02D044F4804402E0284600F0D6
:10129000A0FA17F4803F19D029684FF48030886095
:1012A00017F4003F03D0284600F096FA0EE017F43A
:1012B000802F02D044F4004408E017F4002F02D03D
:1012C00044F4803402E0284600F085FA16F0080F56
:1012D00007D01AF0100F04D044F4007429681020CD
:1012E000C86016F0040F4FF0080707D01AF0080F77
:1012F00004D02868C760284600F0DEF916F0020F17
:1013000007D02868C06810F0030F02D0284600F00C
:10131000D5F916F0400F07D01BF0100F04D044F49D
:10132000806429681020086116F0200F07D01BF098
:10133000080F04D028680761284600F013FA16F059
:10134000100F07D02868006910F0030F02D028465C
:1013500000F009FA16F4003F08D019F0100F05D07C
:10136000296810204860284600F0FEF916F4803FF6
:1013700007D019F0080F04D028684760284600F00D
:101380002CFA16F4004F4AD019F0040F44D016F48A
:10139000807F04D018F0010F01D044F0010416F44E
:1013A000007F04D018F0020F01D044F0020416F4BC
:1013B000806F04D018F0040F01D044F0040416F438
:1013C000006F29D018F0700F26D008F07000402868
:1013D00015D006DC102809D020280AD0302816D1D4
:1013E0000AE050280ED0602811D10EE044F0080425
:1013F0000DE044F010040AE044F0200407E044F05B
:10140000400404E044F0800401E044F4807428685F
:10141000816921F070018161296804204860002CF5
:1014200005D0686A204368622846FFF731FEBDE8B0
:10143000F09F70B50446002C03D094F8200010B142
:1014400004E0012070BD204600F0A8F82068016883
:1014500021F00201016000F01BFD05462068406894
:101460004FF0050610F0020F11D000F011FD401BE7
:101470000A2807D9606A40F40030606284F820606E
:10148000012070BD2068406810F0020FEDD1206887
:10149000016841F00101016000F0FAFC0546206896
:1014A000406810F0010F11D100F0F2FC401B0A2837
:1014B00007D9606A40F40030606284F8206001203F
:1014C00070BD2068406810F0010FEDD0207E01282B
:1014D0003FD02068016821F080010160607E012812
:1014E0003DD02068016821F040010160A07E012804
:1014F0003BD02068016821F020010160E07E0128D6
:1015000039D02068016841F010010160207F012876
:1015100037D02068016821F008010160607F012850
:1015200035D02068016821F004010160E168A068FD
:10153000626908432169114308436168491E0843F1
:101540002168C86100206062012084F8200000202A
:1015500070BD2068016841F080010160BEE720682D
:10156000016841F040010160C0E72068016841F076
:1015700020010160C2E72068016821F010010160CC
:10158000C4E72068016841F008010160C6E72068EF
:10159000016841F004010160C8E70000F0B587B0C0
:1015A000044614216846FEF7B5FE3E4B3E48DFF880
:1015B000F0E01968D4F800C03B4A03250226092749
:1015C00010300024491CF4452AD11960012907D1A3
:1015D000016841F000710160006800F00070059042
:1015E000106840F0080010601068CDE9005600F067
:1015F0000800CDE9047069462C48CDE9024500F0A9
:1016000013FB00220521142000F0F0FF142000F04D
:10161000DFFF00220521152000F0E8FF15203AE049
:10162000DFF88CE0F44538D1D0F800C04CF0806C85
:10163000C0F800C0D0F800C001290CF0806CCDF8D3
:1016400014C0196007D1016841F0007101600068A1
:1016500000F000700590106840F002001060106803
:1016600002AB00F0020005906020CDE9000683E89F
:10167000B00069460F4800F0D7FA0022052140204B
:1016800000F0B4FF402000F0A3FF0022052141201C
:1016900000F0ACFF412000F09BFF07B0F0BD000060
:1016A000006400400C00002030380240000C024072
:1016B00000680040000402407047000010B5044676
:1016C0000068204992B0884205D110AB09AA0021D8
:1016D0001D48FFF7DEFC1D492068884218D16B4683
:1016E00002AA00211A48FFF7D4FC029809280FD259
:1016F000DFE800F00E0508101316191C2100154A2A
:10170000114615E0134A114617E000BFFFF747F8EE
:1017100012B010BD104A11460AE00F4A11460CE003
:101720000E4A114604E00D4A114606E00C4A1146E5
:101730006846121DEAE70A4A1146083168460C322B
:10174000E4E700000064004054030020006800400B
:101750007C03002050070020600700207007002055
:101760008007002070477047704770B5044694F8B2
:101770002000012805D0606A40F40020606201204A
:1017800070BD022084F820002068016821F001016A
:10179000016000F07DFB05462068406810F0010FF5
:1017A00012D000F075FB401B0A2808D9606A40F48B
:1017B00000306062052084F82000012070BD2068A0
:1017C000406810F0010FECD10020606270BD7047DE
:1017D00070477047704770477047704790F83510F2
:1017E000022903D08021416501207047052180F83E
:1017F00035100068016821F0010101600020704788
:101800002DE9F84304464FF00008CDF800807648F3
:101810004FF416510068B0FBF1F7A56D2E6894F8EF
:101820005C00082101FA00F0304211D02068026803
:1018300012F0040F0CD0026822F00402026094F847
:101840005C0001FA00F0A860606D40F00100606586
:1018500094F85C004FF0010909FA00F0304209D019
:101860002168496911F0800F04D0A860606D40F0D4
:101870000200606594F85C1004208840304209D072
:101880002168096811F0020F04D0A860606D40F073
:101890000400606594F85C1010208840304224D029
:1018A0002168096811F0080F1FD0A860206801683E
:1018B00011F4802F0DD0006810F4002F04D0A16C1B
:1018C00099B12046884710E0216C71B120468847C5
:1018D0000BE0016811F4807F03D1016821F0080159
:1018E0000160216C09B12046884794F85C102020E3
:1018F0008840304251D02168096811F0100F4CD057
:10190000A86094F8350005280DD02068016811F40E
:10191000802F32D0006810F4002F29D0E16B59B32A
:101920002046884739E02068016821F016010160EF
:101930002068416921F080014161206C08B9A06CE8
:1019400020B12068016821F00801016094F85C0072
:101950003F2101FA00F0A86084F8348084F83590C3
:10196000216D00293ED001B02046BDE8F043084774
:10197000616C09B1204688470FE0016811F4807F4F
:1019800007D1016821F01001016084F8348084F8E7
:101990003590E16B09B120468847606D002821D061
:1019A000606D10F0010F15D0052084F83500206817
:1019B000016821F0010101600098401C0090B842CC
:1019C00004D82068006810F0010FF5D184F8348045
:1019D00084F83590E16C002904D001B02046BDE8C0
:1019E000F0430847BDE8F883500000202DE9F0419E
:1019F000044600F04DFA0546DCB1002684F8346058
:101A0000022084F835002068016821F0010101609E
:101A10002068006810F0010F13D000F039FA401B65
:101A2000052809D920206065032084F83500BDE829
:101A3000F0810120BDE8F0812068006810F0010FFE
:101A4000EBD121680868234A1040A3686268D4F883
:101A500010C01A43E36843EA0C031A4363691A434C
:101A6000A3691A43E3691A43236A1A431043626A5B
:101A7000042A03D1236BE26A1A43104308602068EA
:101A8000406920F00701606A40EA01050127042847
:101A90000ED1A06A0543E06A50B12046FFF7E8F98D
:101AA00030B14020606584F835700120BDE8F081D8
:101AB000206845612046FFF7C1F994F85C103F2289
:101AC00002FA01F18160666584F835700020BDE896
:101AD000F08100003F8010F070B504460025A66D2F
:101AE00094F8340001280DD0012084F8340094F8D3
:101AF00035C00020BCF1010F06D084F83400022567
:101B0000284670BD022070BD4FF0020C84F835C02D
:101B100060652046FFF7EBF994F85C003F2101FA7D
:101B200000F0B0602068016841F016010160206C8F
:101B300020B12068016841F0080101602068016857
:101B400041F001010160DBE770B5044600F0A0F947
:101B50000546B4F1FF3F02D004480078044400F089
:101B600097F9401BA042FAD370BD0000440000204A
:101B700010B5244C10281AD0202821D008282AD0AB
:101B8000012813D106F0E0FC01280FD004F10C016C
:101B9000206906F0BBFAE068002807D01A494FF028
:101BA00080500860BFF34F8FBFF36F8F10BD607818
:101BB00040F001006070A07840F00100A07003E0E8
:101BC000207840F00100207020790028EED0BDE898
:101BD000104005F0C9BAE07840F00100E070E0780C
:101BE00010F00100E070E1D0E07820F00100E0703A
:101BF000E07840F00200E070BDE81040034805F0D6
:101C00001DBC0000C800002004ED00E094CD0020C1
:101C100010B504490A68024202D00860FFF7A8FF25
:101C200010BD0000143C01402DE9F84F00220324B0
:101C30008E4E8F4F0F25012303FA02F80B6803EA3B
:101C4000080343457DD1D1F804C0BCF1010F08D091
:101C5000BCF1020F05D0BCF1110F02D0BCF1120F84
:101C60001DD1D0F808904FEA420C04FA0CFA29EA88
:101C70000A09D1F80CA00AFA0CFC4CEA090CC0F8CD
:101C800008C0D0F804C02CEA080C91F80480C8F30E
:101C9000001808FA02F848EA0C0CC0F804C0D0F8A2
:101CA0000C904FEA420C04FA0CF829EA0809D1F822
:101CB00008A00AFA0CFA4AEA0909C0F80C90D1F80F
:101CC0000490B9F1020F02D0B9F1120F15D14FEA09
:101CD000D20900EB8909D9F820B04FEA427A4FEADD
:101CE000DA6A05FA0AFE2BEA0E0BD1F810E00EFABA
:101CF0000AFA4AEA0B0AC9F820A0D0F8009029EAAB
:101D0000080891F8049009F0030909FA0CFC4CEA60
:101D1000080CC0F800C0D1F804C01CF0805F10D0DF
:101D2000D6F800C04CF4804CC6F800C0D6F800C00D
:101D30000CF4804CCDF800C022F0030C0CF180496B
:101D400000E075E009F59839D9F808C84FEA8278BB
:101D50004FEA187805FA08FA2CEA0A0AA0F1804C32
:101D6000BCF5003C6AD0A0F1804CBCF5013C68D0C9
:101D7000A0F1804CBCF5023C66D0A0F1804CBCF5D3
:101D8000033C64D0A0F1804CBCF5043C62D0A0F1CF
:101D9000804CBCF5053C60D0A0F1804CBCF5063C05
:101DA0005ED0A0F1804CBCF5073C5CD04FF0080C35
:101DB0000CFA08FC4CEA0A0CC9F808C8DFF8B48031
:101DC000D8F800C02CEA030CD1F8049019F4803F35
:101DD00001D04CEA030CC8F800C0DFF89C80D8F8AA
:101DE00000C02CEA030CD1F8049019F4003F01D094
:101DF0004CEA030CC8F800C0D7F800C02CEA030C6A
:101E0000D1F8048018F4801F01D04CEA030CC7F805
:101E100000C0DFF86880D8F800C02CEA030CD1F8C5
:101E2000049019F4001F01D04CEA030CC8F800C05C
:101E3000521C102AFFF4FFAEBDE8F88F4FF0000CE3
:101E4000B6E74FF0010CB3E74FF0020CB0E74FF0EC
:101E5000030CADE74FF0040CAAE74FF0050CA7E721
:101E60004FF0060CA4E74FF0070CA1E744380240FE
:101E7000083C0140003C0140043C01400C3C014056
:101E8000002A01D081617047090481617047000018
:101E900001488068704700004400002070B5044687
:101EA000002C04D094F83D00002510B106E001207C
:101EB00070BD84F83C50204600F0E0FA242084F8FD
:101EC0003D002068016821F001010160206801687F
:101ED00041F4004101602068016821F40041016083
:101EE00000F08EFC544B6168994203D853498842F4
:101EF00003D304E05249884201D2012070BD514908
:101F0000B0FBF1F12268D2F804C02CF03F0C4CEA8F
:101F1000010CC2F804C062689A4201D84A1C07E06A
:101F20004FF4967251434FF47A72B1FBF2F14A1CAE
:101F30002168D1F820C02CF03F0C42EA0C020A6262
:101F40006168994210D84900401EB0FBF1F2521C62
:101F5000C2F30B02042A01D2042026E0B0FBF1F008
:101F6000401CC0F30B0020E0A268002A50D001EB17
:101F7000C10303EB0113A0F1010CBCFBF3F35B1CE9
:101F800043F480431B051B0D4AD0002A4AD001EBC5
:101F9000C10202EB0111401EB0FBF1F0401CC0F386
:101FA0000B0040F4804040F400402168CA6922F0F0
:101FB000FF0222F44F421043C861216AE0690143E5
:101FC0002068026822F0C00211430160E1682069C4
:101FD00001432068826822F0FF0222F40342114389
:101FE0008160A169606901432068C26822F0FF0234
:101FF0001143C1602068016841F00101016025645E
:10200000202084F83D00256384F83E50002070BDF8
:1020100001EB4103A0F1010CBCFBF3F35B1CB1E746
:102020000120C2E701EB4101401EB0FBF1F0401C72
:10203000C0F30B00B7E70000A086010080841E00FB
:1020400000093D0040420F002DE9FF4F83B00446D8
:102050008A469346DDF84490DDF84080129EFFF7F3
:1020600017FF054694F83D00202803D007B0022052
:10207000BDE8F08F19230122A0492046009501F008
:102080002DFD18B107B00220BDE8F08F94F83C0098
:10209000012808D0012084F83C002068016811F074
:1020A000010F04D007E007B00220BDE8F08F0168FF
:1020B00041F0010101602068016821F400610160C4
:1020C000222084F83D00402084F83E000027276449
:1020D000C4F82480A4F82A90608D20858848E062A6
:1020E000019500965A4651462046069B01F0B6FBE4
:1020F00018B107B00120BDE8F08F208D10B3012882
:1021000029D0022835D02068416980690290208D4D
:10211000002800F0E880DFF8EC81208D032800F231
:10212000B780012834D002284AD0334600224146E5
:102130002046009501F0D2FC00286CD007B00120A9
:10214000BDE8F08F2068416981690291016841F41E
:1021500000710160DBE72068016821F480610160A3
:102160002068416981690291016841F40071016050
:10217000CDE72068016821F4806101602068016872
:1021800041F4006101602068416980690290BEE706
:102190002A463146204601F062FD18B107B0012001
:1021A000BDE8F08F20680069616A0870606A401CB1
:1021B0006062208D401E2085608D401E60858EE00F
:1021C0003346002241462046009501F087FC18B1B5
:1021D00007B00120BDE8F08F2068016841F400716C
:1021E000016020680069616A0870606A401C606272
:1021F000218D491E2185618D491E618521680969EE
:102200000170606A401C6062208D401E2085608DD8
:10221000401E608563E02068016821F480610160F0
:1022200020680069616A0870606A401C6062208DE5
:10223000401E2085608D401E608533460022414649
:102240002046009501F04AFC18B107B00120BDE816
:10225000F08F2068016841F4007101602068006916
:10226000616A0870606A401C6062218D491E218588
:10227000618D491E6185216809690170606A401C91
:102280006062208D401E2085608D401E608526E0A6
:102290002A463146204601F0E2FC18B107B0012081
:1022A000BDE8F08F20680069616A0870606A401CB0
:1022B0006062218D491E2185618D491E61852268DC
:1022C000516911F0040F0AD011690170606A401C55
:1022D0006062208D401E2085608D401E6085208DAF
:1022E00000287FF41AAF202084F83D0084F83E7067
:1022F00084F83C7007B00020BDE8F08F02001000A9
:102300000000FFFF040001002DE9FF4F83B00446E9
:102310008A469346DDF84490DDF84080129EFFF730
:10232000B7FD054694F83D00202803D007B00220F1
:10233000BDE8F08F192301224E492046009501F097
:10234000CDFB18B107B00220BDE8F08F94F83C0037
:10235000012808D0012084F83C002068016811F0B1
:10236000010F04D007E007B00220BDE8F08F01683C
:1023700041F0010101602068016821F40061016001
:10238000212084F83D00402084F83E000027276487
:10239000C4F82480A4F82A90608D20853648E06235
:1023A000019500965A4651462046069B01F000FBD7
:1023B00018B107B00120BDE8F08F208D002836D07D
:1023C0002A463146204601F088FC58B1206C04288A
:1023D00004D12068016841F40071016007B0012058
:1023E000BDE8F08F606A216800780861606A00F1DA
:1023F000010CC4F824C0208D401E80B22085618D60
:10240000491E61852368596911F0040F0CD058B139
:102410009CF800001861606A401C6062208D401EBC
:102420002085608D401E6085208D0028C8D12A46F9
:102430003146204601F024FB58B1206C042804D119
:102440002068016841F40071016007B00120BDE817
:10245000F08F2068016841F400710160202084F849
:102460003D0084F83E7084F83C7007B00020BDE861
:10247000F08F0000020010000000FFFFF0B587B0F1
:10248000044614216846FDF745FF1D49206888422F
:1024900033D11C480024016841F004010160016847
:1024A00001F004010591016841F00101016000683B
:1024B000122500F0010005904FF40070CDE90005F1
:1024C00002AA0326042782E8D00069460E48FFF7D7
:1024D000ABFBB801CDE9000502AA694682E8D0004D
:1024E0000A48FFF7A1FB07481030016841F40001DA
:1024F0000160006800F40000059007B0F0BD000026
:10250000005C0040303802400008024000000240F9
:1025100002488168027811448160704744000020BD
:1025200010B50B48016841F400710160016841F485
:1025300080610160016841F480710160032000F056
:1025400089F80F2000F006F800F026F8002010BDF2
:10255000003C024070B504460D4D4FF47A71287866
:10256000B1FBF0F00B490968B1FBF0F000F098FD09
:1025700008B1012070BD102C07D200222146501E48
:1025800000F034F86C60002070BD012070BD0000C8
:1025900044000020500000200C4882B0016841F443
:1025A00080410160006800F4804000900748001FEF
:1025B000016841F0805101600068002200F0805005
:1025C00000900F21901E02B000F010B84438024075
:1025D00000280ADB00F01F01012202FA01F1400984
:1025E000800000F1E020C0F80011704710B4184BD3
:1025F0001B68C3F30223C3F1070CBCF1040F01D91C
:102600004FF0040C1C1D072C01D2002300E0DB1E40
:10261000012404FA0CFCACF1010C0CEA0101994014
:1026200004FA03F35B1E1A401143002806DB00F195
:10263000E020090180F8001410BC704700F00F0082
:1026400000F1E020090180F8141D10BC7047000063
:102650000CED00E000F00700064A11684FF6FF039A
:10266000194041EA002040F0FD7040F080601060A9
:10267000704700000CED00E02DE9F04704460D46E0
:10268000002C13D0DFF85491D9F80000EFB200F01D
:102690000F00A8420DD289F80070D9F8000000F0B0
:1026A0000F00A84205D00120BDE8F0870120BDE859
:1026B000F08720684A4E10F0020F14D010F0040F7B
:1026C00003D0306840F4E0503060207810F0080FFC
:1026D00003D0306840F4604030603068A16820F07A
:1026E000F00008433060207810F0010F3ED06068A1
:1026F0003C49012808D002280DD003280BD00968D6
:1027000011F0020F28D00AE0096811F4003F06D149
:102710000120BDE8F087096811F0007F19D0316809
:1027200021F0030108433060FFF7B2FB80463068B8
:10273000616800F00C00B0EB810F17D041F2883ACD
:10274000FFF7A6FBA0EB0800504508D90320BDE821
:10275000F0870120BDE8F0870120BDE8F0873068F0
:10276000616800F00C00B0EB810FE9D1D9F80000EE
:1027700000F00F00A8420AD989F80070D9F80000CB
:1027800000F00F00A84202D00120BDE8F0872078B9
:1027900010F0040F05D03068E16820F4E0500843E1
:1027A0003060207810F0080F06D03068216920F4DE
:1027B000604040EAC100306000F042F831680A4AE7
:1027C000C1F30311515CC84008490860084800681B
:1027D000FFF7C0FE0020BDE8F0870000003C02408B
:1027E00008380240003802407A8700085000002074
:1027F0004800002001480068704700005000002099
:1028000000B5FFF7F7FF04490968044AC1F38221C4
:10281000515CC84000BD0000083802408A870008AB
:1028200000B5FFF7E7FF04490968044AC1F34231E4
:10283000515CC84000BD0000083802408A8700088B
:1028400010B51748006810F00C01164816D0164B4A
:10285000042912D0082911D1144C216801F03F023B
:10286000216811F4800F0AD02068C0F38810A0FB03
:1028700003010023FDF704FD09E0184610BD21689F
:102880000023C1F38811A1FB0001FDF7F9FC2168C9
:10289000C1F30141491C4900B0FBF1F010BD00003B
:1028A000083802400024F400001BB700043802403E
:1028B0002DE9F84F0446002C12D02078FB4E10F082
:1028C000010FA6F1040563D0301D016801F00C0171
:1028D00004290CD0006800F00C00082803D010E098
:1028E0000120BDE8F88F306810F4800F09D0286807
:1028F00010F4003F4CD06068002849D10120BDE8A9
:10290000F88F6068B0F5803F14D0B0F5A02F16D0D6
:10291000286820F480302860286820F4802028600F
:10292000606810B3FFF7B4FA0746286810F4003F58
:102930000ED02DE0286840F480302860F0E7286849
:1029400040F480202860286840F480302860E7E761
:10295000FFF79EFAC01B642802D90320BDE8F88F58
:10296000286810F4003FF3D012E0FFF791FA074611
:10297000286810F4003F0BD0FFF78AFAC01B6428C8
:1029800002D90320BDE8F88F286810F4003FF3D186
:102990002078C74F10F0020F4FF0000957D0C548FC
:1029A000016811F00C0F14D0006800F00C0008282A
:1029B00003D1306810F4800F0BD0E06880B30120A1
:1029C0003860FFF765FA8046286810F0020F12D0D1
:1029D0001EE0286810F0020F05D0E068012802D040
:1029E0000120BDE8F88F2868216920F0F80040EA4E
:1029F000C10028602BE0FFF74BFAA0EB080002288B
:102A000002D90320BDE8F88F286810F0020FF2D039
:102A10002868216920F0F80040EAC100286016E02B
:102A2000FFE7C7F80090FFF733FA8046286810F0F8
:102A3000020F0CD0FFF72CFAA0EB0800022802D9F5
:102A40000320BDE8F88F286810F0020FF2D120783B
:102A500010F0080F35D09848DFF860A26169C1B165
:102A600001210160FFF714FA8046DAF8000010F047
:102A7000020F26D1FFF70CFAA0EB0800022802D9BA
:102A80000320BDE8F88FDAF8000010F0020FF1D053
:102A900017E0C0F80090FFF7FBF98046DAF8000075
:102AA00010F0020F0DD0FFF7F3F9A0EB0800022899
:102AB00002D90320BDE8F88FDAF8000010F0020F09
:102AC000F1D1207810F0040F71D04FF000087C484D
:102AD000006810F0805F0AD17948016841F08051A8
:102AE0000160006800F0805000904FF00108DFF8AE
:102AF000D4B1DBF8000010F4807F1BD1DBF80000BC
:102B000040F48070CBF80000FFF7C2F98246DBF892
:102B1000000010F4807F0DD1FFF7BAF9A0EB0A0096
:102B2000022802D90320BDE8F88FDBF8000010F47A
:102B3000807FF1D0A068DFF890B1012818D0052877
:102B40001DD0DBF8000020F00100CBF80000DBF81E
:102B5000000020F00400CBF80000A06840B3FFF7AD
:102B600097F98246DBF8000010F0020F14D03EE027
:102B7000DBF8000040F00100CBF80000EDE7DBF8E7
:102B8000000040F00400CBF80000DBF8000040F04B
:102B90000100CBF80000E0E7FFF77AF9A0EB0A01AB
:102BA00041F28830814204D90320BDE8F88F26E045
:102BB00005E0DBF8000010F0020FEDD017E0FFF7A2
:102BC00067F98246DBF8000010F0020F0FD0FFF724
:102BD0005FF9A0EB0A0141F28830814202D903205B
:102BE000BDE8F88FDBF8000010F0020FEFD1B8F16C
:102BF000010F04D13248016821F080510160A069C1
:102C0000F0B32C49096801F00C01082968D00228AA
:102C100010D0C7F86090FFF73BF90446286810F021
:102C2000007F7ED0FFF734F9001B022853D9032020
:102C3000BDE8F88FC7F86090FFF72AF9804628684A
:102C400010F0007F0CD0FFF723F9A0EB080002285A
:102C500002D90320BDE8F88F286810F0007FF2D178
:102C6000216AE069A26A0843616A4FF0FF33890173
:102C700003EB520241EA0241084394F82C1000E0B1
:102C80004FE040EA0160306001203866FFF700F94C
:102C90000446286810F0007F43D1FFF7F9F8001BC5
:102CA000022813D90320BDE8F88F00000438024041
:102CB0000000474208380240800E47427438024004
:102CC000403802400070004070380240286810F020
:102CD000007FE2D025E0286810F0007FA2D120E03C
:102CE00001281CD03068E26900F48001914214D1BF
:102CF000226A00F03F0191420FD147F6C071626A2B
:102D00000140914209D1A26A00F44031914204D1BC
:102D1000E16A00F07060884203D00120C3E701201F
:102D2000C1E70020BFE770B50446002C05D00025A0
:102D3000A56294F8510010B106E0012070BD84F83E
:102D40005050204600F030F8022084F851002068EE
:102D5000016821F040010160A168606822690843B0
:102D6000E1681143084361690843218B01F4007154
:102D70000843E1690843216A0843A16A08432168BE
:102D80000860A069042101EA1040616A08432168D3
:102D900048602068C16921F40061C1616565012056
:102DA00084F85100002070BD2DE9F04186B0064640
:102DB00014216846FDF7AEFA35493068884264D17F
:102DC00034480024016841F480510160006800F437
:102DD000805005902F481438016841F002010160CD
:102DE000016801F002010591016841F001010160F3
:102DF0000068022500F0010005901820CDE90005CB
:102E000002AA03274FF0050882E89001694622488C
:102E1000FEF70AFF8020CDE9000502AA694682E894
:102E200090011E48FEF700FF1E4D1D487F062860DA
:102E3000C5E901744FF48068C5E903486C617812F4
:102E4000AC61C5E9074028466C62FEF7CFFD08B1CA
:102E5000FEF776F8F564AE63124D11486035183010
:102E6000E5E802074020A5E81101C00245F8144931
:102E7000AC61C5E907400B486C626030FEF7B6FDF7
:102E800008B1FEF75DF8B564AE6306B0BDE8F08149
:102E9000003001404438024000040240000002407B
:102EA00040640240500400202DE9F84F04460A9E79
:102EB0008A4693461F4601254FF0000894F85000BB
:102EC00001280ED0012084F85000FEF7E1FF814672
:102ED00094F85100616801280ED0B1F5827F07D1C6
:102EE00002E00220BDE8F88FA16809B9042803D0E8
:102EF0004FF0020800F0CBB8BAF1000F1DD0BBF1C3
:102F0000000F1AD0380018D094F85100042802D0CD
:102F1000052084F8510000206065C4F838B0E787C8
:102F2000A787C4F830A0E786A7862064606420687D
:102F3000016811F0400F03D006E04FF00108A6E051
:102F4000016841F040010160E068B0F5006F05D014
:102F50006068002848D0012F46D07EE0606808B144
:102F6000012F3AD1206B21680088C860206B801C3B
:102F70002063E08E401EE0862FE02068816811F01B
:102F8000020F0DD0E18E59B1012D09D1216B0988B5
:102F9000C160206B801C2063E08E401EE08600250F
:102FA0002068816811F0010F0BD0E18F49B1C06832
:102FB000A16B0880A06B801CA063E08F401EE0879F
:102FC0000125FEF765FFA0EB0900B04205D3B6F17D
:102FD000FF3F02D04FF0030859E0E08E0028CCD12B
:102FE000E08F0028C9D13EE0206B2168007808738B
:102FF000206B401C2063E08E401EE0862DE02068A0
:10300000816811F0020F0DD0E18E59B1012D09D167
:10301000216B09780173206B401C2063E08E401EF9
:10302000E08600252068816811F0010F0BD0E18F48
:1030300049B1C068A16B0870A06B401CA063E08F11
:10304000401EE0870125FEF723FFA0EB0900B042F8
:1030500002D3B6F1FF3F11D186B1E08E0028CED168
:10306000E08F0028CBD14A463146204602F012FEBE
:1030700038B14FF001082020606508E04FF00308E8
:1030800005E0A06818B92068C16880680090012038
:1030900084F85100002084F850004046BDE8F88FC5
:1030A000401EB0F1807F01D3012070474FF0E02136
:1030B0004861044AF02010700020886107200861F0
:1030C0000020704723ED00E010B50446002C03D02B
:1030D00094F83D0010B107E0012010BD002084F8F5
:1030E0003C00204600F00CF8022084F83D00211D31
:1030F000206802F0BDFE012084F83D00002010BDD4
:1031000008B500680649884208D10648016841F4BC
:1031100000310160006800F40030009008BD00003C
:10312000004401404438024010B586B004461421E2
:103130006846FDF7EFF80E492068884216D10D4821
:103140000021026842F002020260006800F0020002
:1031500005904FF4807000900220CDE9010103201A
:10316000CDE9031069460448FEF75EFD06B010BDC8
:1031700000440140303802400004024070B504466B
:103180000D4694F83C0001280DD0012684F83C60DF
:10319000022084F83D0042B1042A1AD0082A2DD01A
:1031A0000C2A53D13EE0022070BD2946206802F06F
:1031B000C5FE2068816941F008018161206881694C
:1031C00021F004018161206881692A6911438161CC
:1031D0003CE02946206802F0E9FE2068816941F45C
:1031E000006181612068816921F4806181612068CA
:1031F00081692A6941EA0221816127E02946206824
:1032000002F010FF2068C16941F00801C161206827
:10321000C16921F00401C1612068C1692A691143B3
:10322000C16113E02946206802F038FF2068C169B7
:1032300041F40061C1612068C16921F48061C1610C
:103240002068C1692A6941EA0221C16184F83D60B0
:10325000002084F83C0070BD10B50446002C03D05B
:1032600094F83D0010B107E0012010BD002084F863
:103270003C00204600F00CF8022084F83D00211D9F
:10328000206802F0F5FD012084F83D00002010BD0B
:103290007047704710B5044622681068D1685269BB
:1032A00000F00F03002B0AD110F0200F07D011F00F
:1032B000200F04D02046BDE8104002F0ADBF002B27
:1032C00071D002F0010301F4907C53EA0C0C6AD037
:1032D00010F0010F08D011F4807F05D0D4F83CC065
:1032E0004CF0010CC4F83CC010F0040F08D012F0F0
:1032F000010F05D0D4F83CC04CF0020CC4F83CC01F
:1033000010F0020F06D012F0010F03D0E26B42F072
:103310000402E26310F0080F07D001F020021A4304
:1033200003D0E26B42F00802E263E26B002A2ED087
:1033300010F0200F05D011F0200F02D0204602F02F
:103340006BFF20684069C0F38010E16B11F0080F3B
:1033500000D108B3204602F03BFF2068416911F01C
:10336000400F15D0416921F040014161606B58B1B7
:1033700018490165606BFEF731FA002807D0606BD1
:10338000016DBDE8104008472046FFF782FF10BDE1
:103390002046FFF77EFF10BD2046FFF77AFF002092
:1033A000E06310BDFFE710F0800F07D011F0800F31
:1033B00004D02046BDE8104003F04AB810F0400F9A
:1033C000EFD011F0400FECD02046BDE8104002F0E5
:1033D0000DBF0000F560000870B50446002C04D055
:1033E00094F83900002510B106E0012070BD84F882
:1033F0003850204600F022F8242084F83900206854
:10340000C16821F40051C160204602F053FF2068DA
:10341000016921F4904101612068416921F02A018C
:1034200041612068C16841F40051C160E56320201A
:1034300084F8390084F83A00002070BD2DE9F04F7F
:1034400087B0044614216846FCF764FF6548644B66
:103450002268644914380226032700254FF0400AE9
:103460004FF4806B9A4262D10A6842F010020A60FF
:10347000096801F010010591016841F00201016045
:10348000016801F002010591016841F0010101604C
:10349000006802AA00F0010005908020CDE9000636
:1034A0004FF0070882E8A00169464F48FEF7BCFBD1
:1034B0003002CDE9000602AA694682E8A0014B4825
:1034C000FEF7B2FB4B4E4FF440384948C6E9035B68
:1034D0007561B561C6E907584FF00069756286E805
:1034E00001065F463046FEF781FA08B1FDF728FD78
:1034F0002663B4633F4E3E48603630383060C6E9DC
:103500000195C6E903577561B561C6E907583046AC
:103510007562FEF76BFA08B1FDF712FD66630022D3
:1035200005212520B463FFF761F8252053E0324BD5
:103530009A4252D10A6842F020020A60096801F0FA
:1035400020010591016841F0400101600068029589
:1035500000F0400005904FF48440CDE900060820BB
:10356000CDE9037069462548FEF75EFB214E4FF416
:103570004038C0361E48C6E9035B7561B561C6E9CF
:10358000075818384FF02069756286E801065F46D3
:103590003046FEF72BFA08B1FDF7D2FC2663B46380
:1035A0001348174E90383060C6E90195C6E90357B5
:1035B0007561B561C6E9075830467562FEF716FABF
:1035C00008B1FDF7BDFC6663002205214720B46306
:1035D000FFF70CF84720FEF7FBFF07B0BDE8F08FC0
:1035E0000010014044380240000402400000024044
:1035F000B8640240D00500200014014000180240C9
:10360000F006002037B582B00446134694F83A001D
:10361000202802D005B0022030BD039A002A36D0FF
:10362000002B34D094F83800012833D0012084F8DE
:103630003800A262A3850025E563222084F83A00C1
:10364000616B1648C863616B15480864616B154867
:10365000C864606B05652068011D606BFEF73CFA6D
:10366000206801684168019184F83850C16841F4CC
:103670008071C1602068416941F0010141612068A9
:10368000416941F04001416105B0002030BD05B005
:10369000012030BD05B0022030BD00004F610008A0
:1036A0008D61000805610008704770472DE9F843F7
:1036B00004460D4690461E4694F83900202802D054
:1036C0000220BDE8F8836DB3B8F1000F2AD094F85A
:1036D0003800012829D0012084F838004FF0000973
:1036E000C4F83C90212084F83900FEF7D1FB07464E
:1036F000A4F82480A4F8268084F83890E08CA0B345
:10370000E08C401EE084A068B0F5805F10D03B469E
:10371000002280212046009602F0CDFEF0B1032069
:10372000BDE8F8830120BDE8F8830220BDE8F883F6
:103730003B46002280212046009602F0BCFE10B1DC
:103740000320BDE8F88328882168C0F3080048609A
:10375000206908B16D1C05E0AD1C03E0216815F877
:10376000010B4860E08C0028CAD13B460022402172
:103770002046009602F09FFE10B10320BDE8F883BA
:10378000202084F839000020BDE8F88337B50446CE
:1037900094F83900202802D003B0022030BD0199EE
:1037A000002932D0002A30D094F8380001282FD0D8
:1037B000012084F838002162A284E2840025E563B8
:1037C000212084F83900236B1348D863236B1348F6
:1037D0001864236B1248D864206B05652068134673
:1037E000001DD4F830C002466046FEF775F9216826
:1037F0006FF04000086084F838502068416941F05B
:103800008001416103B0002030BD03B0012030BD14
:1038100003B0022030BD000097610008C7610008B6
:103820000561000870477047FEE701684A6912F4B5
:10383000806F11D06FF480624A6100210163202201
:1038400080F83D2080F83E10026C42F004020264D1
:1038500080F83C1001207047002070472DE9F84F98
:103860000446DDF828A00B9D0F4690461E462068B2
:10387000016841F4806101602068016841F4807151
:103880000160534600224FF001112046009500F0E0
:1038900025F94FF4007948B12068006810F4807F62
:1038A00001D0C4F840900320BDE8F88F216807F0EC
:1038B000FE000861DFF8F4B02B4652465946204618
:1038C00000F066F910B10120BDE8F88F2068416969
:1038D000806900902A465146204600F0FEF950B11A
:1038E000206C042804D12068016841F40071016053
:1038F0000120BDE8F88F304608F0FF0601280DD002
:1039000021684FEA182008612A465146204600F0F7
:10391000E4F970B1206C042803D007E02068066148
:1039200009E02068016841F4007101600120BDE8F0
:10393000F88F206806612A465146204600F0CDF9EE
:1039400050B1206C042804D12068016841F4007152
:1039500001600120BDE8F88F2068016841F48071A2
:103960000160534600224FF001112046009500F0FF
:10397000B5F848B12068006810F4807F01D0C4F821
:1039800040900320BDE8F88F2168F8B240F00100B4
:1039900008612B4652465946204600F0F9F810B10E
:1039A0000120BDE8F88F0020BDE8F88F020001007B
:1039B0002DE9F8430446DDF82090099F0D46164690
:1039C00098462068016841F4807101604B460022EE
:1039D0004FF001112046009700F080F850B12068A8
:1039E000006810F4807F02D04FF400702064032040
:1039F000BDE8F883216805F0FE0008613B464A46B1
:103A00001E49204600F0C4F810B10120BDE8F8833B
:103A100020684169806900903A464946204600F096
:103A20005CF950B1206C042804D12068016841F48D
:103A3000007101600120BDE8F883F5B2B8F1010F13
:103A40000CD02168300A08613A464946204600F009
:103A500044F970B1206C042803D007E020680561A8
:103A600009E02068016841F4007101600120BDE8AF
:103A7000F883206805610020BDE8F883020001009A
:103A800070B504460D4616462068406910F0040FD4
:103A900013D12046FFF7C9FE08B1012070BDB5F172
:103AA000FF3F05D0FEF7F4F9801BA84207D835B1D7
:103AB0002068406910F0040FEBD0002070BD00209A
:103AC0002063202184F83D1084F83E00216C41F0F1
:103AD0002001216484F83C00012070BD2DE9F047ED
:103AE0000446DDF820900D4617461E46C5F30748EC
:103AF0002068B8F1010F22D0806925EA0000000497
:103B0000000C26D00020B84216D1B6F1FF3F06D0F7
:103B1000FEF7BEF9A0EB0900B0421CD8DEB1B8F147
:103B2000010F28D02068806925EA00000004000CFD
:103B30002CD00020B842E8D00020BDE8F0874069D2
:103B400025EA00000004000C01D00020DBE7012082
:103B5000D9E70120D7E700202063202184F83D1019
:103B600084F83E00216C41F02001216484F83C007F
:103B70000120BDE8F0872068406925EA00000004C4
:103B8000000C01D00020D5E70120D3E70120D1E7C8
:103B90002DE9F04704460D4616461F46C5F3074873
:103BA0002068B8F1010F26D0806925EA00000004E2
:103BB000000C3AD04FF000094FF0200A206840690D
:103BC00010F4806F1ED02068016841F4007101601C
:103BD00021686FF480604861C4F8309084F83DA09B
:103BE00084F83E90206C40F00400206484F83C90FF
:103BF0000120BDE8F087406925EA00000004000CC0
:103C000013D0D7E7B6F1FF3F05D0FEF741F9C01B4F
:103C1000B0420DD866B1B8F1010F18D020688069A4
:103C200025EA00000004000CC8D10020BDE8F087A0
:103C3000C4F8309084F83DA084F83E90206C40F0A9
:103C40002000206484F83C900120BDE8F0872068C3
:103C5000406925EA00000004000CAFD1E5E72DE93A
:103C6000F04104460D4616462068406910F0400FAA
:103C700022D100274FF020082068406910F0100F73
:103C80000FD021686FF010004861276384F83D80F1
:103C900084F83E70206C206484F83C700120BDE8FC
:103CA000F081FEF7F5F8801BA84208D83DB12068E6
:103CB000406910F0400FDFD00020BDE8F08127639D
:103CC00084F83D8084F83E70206C40F02000206431
:103CD00084F83C700120BDE8F08170B504460D46C3
:103CE00016462068406910F0800F13D12046FFF778
:103CF0009CFD08B1012070BDB5F1FF3F05D0FEF776
:103D0000C7F8801BA84207D835B12068406910F079
:103D1000800FEBD0002070BD00202063202184F8AC
:103D20003D1084F83E00216C41F02001216484F8AC
:103D30003C00012070BD0000072000E0642003F07B
:103D4000EFFBFCF77DFD0028F8D102E0642003F0D2
:103D5000E7FB03F033FB0028F8D13B4AA2F1100542
:103D6000101D9146291D8046FCF782FDDFED370AC4
:103D70009FED370A374A002105F1340000F0AAFD13
:103D800005F12406321D291DA5F12800FCF78CFC45
:103D9000002003F001FC04F091FB2F4C2F4920611F
:103DA0001020C8610846FEF7BEFF08B1FDF7C8F84D
:103DB000294908222031A1F1080001F0F3FE012079
:103DC0002071871E3946012003F0ACFE0128F9D18D
:103DD0002078000708D5207820F0080020701E48C1
:103DE00041462130FCF7FCFC607840070AD560783A
:103DF00020F004006070144A291D1032A2F12A003C
:103E0000FCF78CFCA07840070CD5A07820F00400CB
:103E1000A070114849461630FCF704FE95ED040ADF
:103E200003F030FA0848331D2A1D41469FED0C0A65
:103E30003838FCF749FC044B203B1A1F111FA1F135
:103E4000100003F039F9BDE77CCD002000808945E2
:103E500000A08C4594870008C8000020F8030020CB
:103E60006F12833A0F4810B50D490160032141607C
:103E700000214FF410228160C0E903124FF40012B8
:103E80004261017641768176C17601774177FDF70F
:103E9000D0FA002803D0BDE81040FDF751B810BD9E
:103EA00000640040540300200F4810B50D49016024
:103EB0000321416000214FF410228160C0E9031208
:103EC0004FF400124261017641768176C176017726
:103ED0004177FDF7AEFA002803D0BDE81040FDF7AA
:103EE0002FB810BD006800407C0300201D4808B5B5
:103EF000016841F4800101600068002200F4800044
:103F0000009005213920FEF771FB3920FEF760FB98
:103F1000002205213A20FEF769FB3A20FEF758FB04
:103F2000002205213B20FEF761FB3B20FEF750FB02
:103F3000002205214420FEF759FB4420FEF748FBF0
:103F4000002205214520FEF751FB4520FEF740FBEE
:103F5000002205214620FEF749FBBDE80840462027
:103F6000FEF736BB3038024010B596B01C2211491E
:103F70006846FCF7B6F90021684603F0DEFA0E4CFD
:103F80000C491C2220601C3107A8FCF7AAF900216B
:103F900007A803F0D2FA074960601C2238310EA846
:103FA000FCF79FF900210EA803F0C7FAA06016B035
:103FB00010BD000000870008000000202DE9F0413E
:103FC00086B014216846FCF7A5F94A48016841F01B
:103FD00002010160016801F002010591016841F0F0
:103FE00040010160016801F040010591016841F064
:103FF00001010160016801F001010591016841F0D2
:1040000008010160016801F008010591016841F0B3
:1040100004010160016801F004010591016841F0AB
:10402000800101600068344E00F08000059001229C
:1040300040213046FDF724FF304F01221021384641
:10404000FDF71EFFDFF8B880012211464046FDF75C
:1040500017FF01244020CDE9000402946946304650
:104060000394FDF7E1FD274D0920CDE900056946E0
:1040700002943046FDF7D8FD1020CDE90004022659
:10408000CDE9024669463846FDF7CEFD3020CDE940
:104090000005694602941C48FDF7C6FDCDE90246BD
:1040A0000094694640460194FDF7BEFD06210022BA
:1040B0000846FEF79BFA0620FEF78AFA0022052141
:1040C0000920FEF793FA0920FEF782FA0022052163
:1040D0000A20FEF78BFA0A20FEF77AFA0022052161
:1040E0001720FEF783FA1720FEF772FA06B0BDE834
:1040F000F081000030380240001802400000024009
:104100000004024000002110000802400D4810B5D4
:104110000B4901600C49416000214FF480428160ED
:10412000C0E9031241618161C1610162FDF7B6FE20
:10413000002803D0BDE81040FCF702BF10BD00000E
:10414000005C0040A4030020801A0600104810B54F
:104150000E4901604FF482714160002181600122AB
:10416000C160C0E90412520282613822C0E907210D
:10417000416281620A21C162FEF7D5FD002803D0A9
:10418000BDE81040FCF7DCBE10BD0000003001406F
:10419000F803002010B588B01C216846FCF7BAF877
:1041A000144813490024C0E900144FF6FF71C0E918
:1041B000024104618461FEF787FF08B1FCF7C0FE8D
:1041C0000C48FFF749F808B1FCF7BAFE6020CDE9CA
:1041D000000402940022694606480494FEF7CEFFCC
:1041E00008B1FCF7ADFE0348FEF79EFF08B010BD16
:1041F00000440140100500200C4810B50A49016038
:104200000B494160002181600C22C160C0E90412A9
:104210008161C161FFF7E0F8002803D0BDE81040DC
:10422000FCF78EBE10BD00000010014050050020BC
:10423000003E49000C4810B50A4901600B49416035
:10424000002181600C22C160C0E904128161C1615A
:10425000FFF7C2F8002803D0BDE81040FCF770BE9D
:1042600010BD00000014014090050020003E4900F0
:1042700010B5B5EEC03A2DED108BF0EE419AB0EED0
:1042800060AAF0EE40AAF1EE10FA84B0044616D10E
:10429000F5EEC03AF1EE10FA11D1B5EEC04AF1EEEA
:1042A00010FA0CD104B0B0EE691AF0EE4A0AB0EE82
:1042B0006A0ABDEC108BBDE8104000F083B9F5EE42
:1042C000C01AF1EE10FA09D1B5EEC02AF1EE10FADB
:1042D00004D1F5EEC02AF1EE10FA7CD021EEA10A4D
:1042E00002EE020A02EEA20A03F00AF821EE80FAB8
:1042F00062EE00EA22EE80EA23EE030A03EEA30A4E
:1043000004EE040A02F0FCFFD4ED000A23EE009A4A
:1043100063EE808A60EEA01A24EE008AF0EE00FAC6
:10432000CDED031A94ED010A94ED021AD4ED031AAF
:1043300020EE80DA60EE81CA20EEA12A61EE01DA79
:1043400060EE002A60EE010A20EE21CAB6EE000AF5
:1043500021EEA1BA30EE6D0A61EE21BA3CEE2C1AC4
:1043600070EE4B1ACDED021A21EE890A70EEC21AD8
:1043700070EE820ACDED011A08EEA10A60EE890AFC
:1043800008EE010AB6EE001A71EE621A20EE2F0A4C
:1043900031EECB1ACDED001A20EE000A48EE810A6C
:1043A0003BEECD1A48EE010A60EEAF0A00EEA00A1D
:1043B00010EE100AFCF732F841EC100B02F0AEFAE6
:1043C00051EC100BFCF73DF83CEE6C0A00EE900A45
:1043D00020EE091A00E08EE07BEE8D1AF6EE002A40
:1043E0003CEE8C4A3DEE2B2A08EEA11ADDED001AB8
:1043F000704931EEED3ADDED031A71EEE21A08EE86
:10440000031A71EE8B3ADDED021A21EE2F1A61EEDE
:10441000A02ADDED011A61EEA01A64EE200A41EE39
:10442000002A41EE021A41EE030A2EEEA31A0EEE06
:10443000421A28EEA03A2FEE022A08EE613A0EEE5A
:10444000C02A31EE031A2EEE003A29EE210AD1EDF0
:10445000011A0FEE633A68EE223A08EEE20AF5EE30
:10446000C01A49EE603A32EE000A73EE230AF1EE0A
:1044700010FA2CDDD1ED011A91ED022A61EE812AAC
:10448000DFED4D1A02EEA12A81ED022A91ED012AFB
:1044900062EE202A91ED032A02EEA12A81ED032A81
:1044A00091ED012A62EE002A91ED042A02EEA12A82
:1044B00081ED042AD1ED021A7AEEA1AAD1ED031AF8
:1044C0003AEE21AAD1ED041A79EEA19A07E0DFEDC8
:1044D0003B1AC1ED021AC1ED031AC1ED041AD1ED68
:1044E000001A41EE81AA91ED001A01EE20AAD1ED49
:1044F000000A40EE809A9FED320A94ED011A94ED85
:10450000022A6AEE800A2AEE003A69EE802A94EDC9
:10451000030A61EE603AD4ED001A42EE433A40EEEF
:10452000623A73EEA14A61EEA03AC4ED004A42EE4F
:10453000223A40EE433A33EE814A61EE833A61EE2D
:10454000A21A84ED014A41EE623A41EE031A40EEAE
:10455000203A42EE601A73EE823A71EE800A24EE3F
:10456000A40AC4ED023AC4ED030A04EE040A03EE01
:10457000A30A00EEA00A02F0C3FED4ED000A60EE2A
:10458000800AC4ED000AD4ED010A60EE800AC4ED91
:10459000010AD4ED020A60EE800AC4ED020AD4EDED
:1045A000030A20EE800A84ED030A04B0BDEC108BF0
:1045B00010BD0000540000206F12833A000000007C
:1045C0006F12033AF5EEC01AB0EE413AF0EE603ADF
:1045D000B0EE404AF1EE10FA00B5024609D1B5EE50
:1045E000C02AF1EE10FA04D1F5EEC02AF1EE10FA6D
:1045F00078D021EEA10A02EE020A02EEA20A02F02F
:104600007FFE21EE805A62EE004A92ED011AD2ED51
:10461000030A22EE800AD2ED002A21EE202AD2EDF2
:10462000021A22EE811A5C4802EEE12A01EEA01A7B
:10463000F6EE001A52EEA21A40EEA01A60EE020A3E
:1046400064EEA12A45EE610A40EE412A25EE010AF8
:1046500090ED011A04EEC20AB5EEC01AF1EE10FA9E
:104660002CDD90ED011AD0ED021A21EE222A9FEDE9
:104670004B1A42EE011AC0ED021AD0ED011A21EEDA
:10468000A02AD0ED031A42EE011AC0ED031AD0EDB4
:10469000011A21EE802AD0ED041A42EE011AC0ED73
:1046A000041A90ED021A34EE014A90ED031A73EEEB
:1046B000813A90ED041A33EE013A07E09FED381A83
:1046C00080ED021A80ED031A80ED041A90ED001AB5
:1046D00001EE224A90ED001A41EE203AD0ED000A98
:1046E00000EE803A9FED2F0AD2ED021A24EE002A46
:1046F00063EE802A23EE001A92EC020A92ED033A4E
:1047000060EEC23A41EEE23A43EE413A73EE804A3D
:1047100060EE023AC2ED004A41EE813A43EE623A5F
:1047200033EEA04A60EE223A20EE010A82ED014A01
:1047300040EEC13A00EEA20A43EE023A01EEC20A8E
:1047400073EEA13A70EE030A24EEA40AC2ED023A17
:10475000C2ED030A04EE040A03EEA30A00EEA00A67
:1047600002F0CEFDD2ED000A60EE800AC2ED000A32
:10477000D2ED010A60EE800AC2ED010AD2ED020A12
:1047800060EE800AC2ED020AD2ED030A20EE800A32
:1047900082ED030A00BD0000540000206F12833A2E
:1047A000000000006F12033AFEE7FEE7A0B1D0ED73
:1047B000101AC0ED111A90ED0F1A80ED101AC0ED0D
:1047C000060A80ED070A30EEC00A80ED0F0A017874
:1047D00029B101293BD078E09FED3D0A7047D0ED2B
:1047E000010A60EE801AC0ED091AD0ED0A0A90EDB8
:1047F000022A42EE000A30EE410AC0ED0A0A90EDAC
:104800000D2A80ED0E2A90ED0C2A80ED0D2A80ED08
:104810000C0A90ED031A21EE001A80ED0B1A90EDB0
:10482000050AF4EEC00AF1EE10FA09DCB1EE400A16
:10483000F4EEC00AF1EE10FA02D390ED0A0A01E09C
:1048400080ED0A0A31EE800A30EE010A2BE070EEAC
:10485000410A90ED012A20EE822A80ED092AD0ED4E
:10486000020A60EE800AC0ED0A0AD0ED0D2A72EE4F
:10487000200AC0ED0E2AD0ED0C2AC0ED0D2AF0EE74
:10488000002A01EE620A30EE210A80ED0C0A90ED5A
:10489000031A21EE000A80ED0B0A30EE800AD0EDFB
:1048A000080A30EE200A80ED080AD0ED040AB4EEC2
:1048B000E00AF1EE10FA06DCF1EE600AB4EEE00A6E
:1048C000F1EE10FA01D2C0ED080A90ED080A704727
:1048D00000000000002828D0002A26D0017092EDA8
:1048E000001A80ED011A92ED011A80ED021A92ED84
:1048F000021A80ED031A80ED040A9FED0C0AC0ED48
:10490000050A80ED0E0A80ED0D0A80ED0C0A80ED9F
:10491000080A80ED0B0A80ED0A0A80ED090A80ED95
:10492000110A80ED100A80ED0F0A704700000000A8
:104930002DE9F74FF84981B00868026822F00102BA
:104940000260F6480268136823F00103136003E075
:104950000A6822F001020A60EF4909680A68D20772
:10496000F6D103E0016821F001010160EB48006825
:104970000168C907F6D1EA48EA4AEB4BD0F84C90F7
:10498000E84CE94DE74EE84FDFF898E3DFF894C3D1
:10499000D9F80000E449483A603318341835303EFD
:1049A00078374FF4006A0CF1300C704535D98842E5
:1049B00005D0904203D0984201D0A04201D12020DE
:1049C00026E0A84205D0B04203D0B84201D06045ED
:1049D00001D150461CE0DFF8508308F13008404513
:1049E00011D0DFF84083A8F1180840450BD0DFF85C
:1049F000388308F19008404505D0DFF8288308F196
:104A00004808404502D14FF4001001E04FF000602B
:104A1000DFF81083A8F14C083AE0DFF80C8308F1C6
:104A2000A808404537D9884205D0904203D0984223
:104A300001D0A04201D1202026E0A84205D0B042FA
:104A400003D0B84201D0604501D150461CE0DFF8E8
:104A5000D88208F13008404511D0DFF8C882A8F1AB
:104A6000180840450BD0DFF8C08208F19008404597
:104A700005D0DFF8B08208F14808404502D14FF474
:104A8000001001E04FF00060DFF89882A8F15008B4
:104A9000C8F8000074E0DFF8908208F1480840454B
:104AA00037D9884205D0904203D0984201D0A04225
:104AB00001D1202026E0A84205D0B04203D0B84260
:104AC00001D0604501D150461CE0DFF85C8208F15E
:104AD0003008404511D0DFF84C82A8F11808404555
:104AE0000BD0DFF8448208F19008404505D0DFF88C
:104AF000348208F14808404502D14FF4001001E02B
:104B00004FF00060DFF82082A8F11008C8F80C0010
:104B100036E0884205D0904203D0984201D0A042AE
:104B200001D1202026E0A84205D0B04203D0B842EF
:104B300001D0604501D150461CE0DFF8EC8108F15E
:104B40003008404511D0DFF8DC81A8F11808404555
:104B50000BD0DFF8D48108F19008404505D0DFF88C
:104B6000C48108F14808404502D14FF4001001E02B
:104B70004FF00060DFF8B081A8F11008C8F8080015
:104B8000D9F800004FF4806B704535D9884205D0C4
:104B9000904203D0984201D0A04201D1102026E0DB
:104BA000A84205D0B04203D0B84201D0604501D13F
:104BB00058461CE0DFF8708108F13008404511D0FC
:104BC000DFF86081A8F1180840450BD0DFF8588164
:104BD00008F19008404505D0DFF8488108F1480801
:104BE000404502D14FF4801001E04FF08060DFF8C3
:104BF0003481A8F14C083AE0DFF82C8108F1A808CC
:104C0000404537D9884205D0904203D0984201D020
:104C1000A04201D1102026E0A84205D0B04203D026
:104C2000B84201D0604501D158461CE0DFF8F88059
:104C300008F13008404511D0DFF8E880A8F11808E5
:104C400040450BD0DFF8E08008F19008404505D0E2
:104C5000DFF8D08008F14808404502D14FF48010B9
:104C600001E04FF08060DFF8BC80A8F15008C8F880
:104C700000007AE0DFF8B08008F14808404537D9F5
:104C8000884205D0904203D0984201D0A04201D181
:104C9000102026E0A84205D0B04203D0B84201D08F
:104CA000604501D158461CE0DFF87C8008F13008EF
:104CB000404511D0DFF86C80A8F1180840450BD0B2
:104CC000DFF8648008F19008404505D0DFF8548093
:104CD00008F14808404502D14FF4801001E04FF040
:104CE0008060DFF84480A8F11008C8F80C003CE0B0
:104CF000884205D0904203D0984201D0A04201D111
:104D000010202CE0A84205D0B04203D0B84201D018
:104D100060450BD1584622E050040020B00400202A
:104D2000F80300205864024010600240DFF86889F0
:104D300040450FD0DFF8648940450BD0DFF8588933
:104D400008F16008404505D0DFF8508908F1600897
:104D5000404502D14FF4801001E04FF08060DFF851
:104D60003889A8F14008C8F80800D9F80000704553
:104D700032D9884205D0904203D0984201D0A04257
:104D800001D1082023E0A84205D0B04203D0B842A8
:104D900001D0604502D14FF4007018E0DFF8F888C8
:104DA00040450FD0DFF8F48840450BD0DFF8E888A5
:104DB00008F16008404505D0DFF8E08808F1600898
:104DC000404502D14FF4002001E04FF00070DFF8C1
:104DD000CC88A8F1340837E0DFF8BC8808F17808FF
:104DE000404534D9884205D0904203D0984201D042
:104DF000A04201D1082023E0A84205D0B04203D050
:104E0000B84201D0604502D14FF4007018E0DFF8DD
:104E1000888840450FD0DFF8848840450BD0DFF804
:104E2000788808F16008404505D0DFF8708808F1FF
:104E30006008404502D14FF4002001E04FF00070BF
:104E4000DFF85888A8F13808C8F800006EE0DFF8ED
:104E5000488808F11808404534D9884205D0904266
:104E600003D0984201D0A04201D1082023E0A842FB
:104E700005D0B04203D0B84201D0604502D14FF412
:104E8000007018E0DFF8108840450FD0DFF80C887C
:104E900040450BD0DFF8008808F16008404505D098
:104EA000DFF8F88708F16008404502D14FF4002090
:104EB00001E04FF00070DFF8E087A8F14008C8F883
:104EC0000C0033E0884205D0904203D0984201D0D4
:104ED000A04201D1082023E0A84205D0B04203D06F
:104EE000B84201D0604502D14FF4007018E0DFF8FD
:104EF000A88740450FD0DFF8A48740450BD0DFF8E6
:104F0000988708F16008404505D0DFF8908708F1E0
:104F10006008404502D14FF4002001E04FF00070DE
:104F2000DFF87487A8F14008C8F80800DFF86C873C
:104F3000D9F8000008F118084FF4807E404531D9B7
:104F4000884205D0904203D0984201D0A04201D1BE
:104F5000042022E0A84205D0B04203D0B84201D0DC
:104F6000604501D1704618E0DFF82C8740450FD02E
:104F7000DFF8288740450BD0DFF81C8708F1600870
:104F8000404505D0DFF8148708F16008404502D19C
:104F90004FF4802001E04FF08070DFF80087A8F127
:104FA000340836E0DFF8F08608F17808404533D958
:104FB000884205D0904203D0984201D0A04201D14E
:104FC000042022E0A84205D0B04203D0B84201D06C
:104FD000604501D1704618E0DFF8BC8640450FD02F
:104FE000DFF8B88640450BD0DFF8AC8608F16008E2
:104FF000404505D0DFF8A48608F16008404502D19D
:105000004FF4802001E04FF08070DFF89086A8F127
:105010003808C8F800006CE0DFF87C8608F1180852
:10502000404533D9884205D0904203D0984201D000
:10503000A04201D1042022E0A84205D0B04203D012
:10504000B84201D0604501D1704618E0DFF84886CB
:1050500040450FD0DFF8448640450BD0DFF8388656
:1050600008F16008404505D0DFF8308608F1600897
:10507000404502D14FF4802001E04FF08070DFF80E
:105080001886A8F14008C8F80C0032E0884205D024
:10509000904203D0984201D0A04201D1042022E0E6
:1050A000A84205D0B04203D0B84201D0604501D13A
:1050B000704618E0DFF8E08540450FD0DFF8DC856A
:1050C00040450BD0DFF8D08508F16008404505D099
:1050D000DFF8C88508F16008404502D14FF4802010
:1050E00001E04FF08070DFF8B085A8F14008C8F803
:1050F0000800DFF8A885D9F8000008F118084FF477
:105100008039404530D9884205D0904203D098423A
:1051100001D0A04201D1012021E0A84205D0B04237
:1051200003D0B84201D0604501D1402017E0DFF83C
:10513000688540450FD0DFF8648540450BD0DFF827
:10514000588508F16008404505D0DFF8508508F122
:105150006008404501D1484601E04FF48000DFF887
:105160003C85A8F1340835E0DFF82C8508F1780893
:10517000404532D9884205D0904203D0984201D0B0
:10518000A04201D1012021E0A84205D0B04203D0C5
:10519000B84201D0604501D1402017E0DFF8F88423
:1051A00040450FD0DFF8F48440450BD0DFF8E884A9
:1051B00008F16008404505D0DFF8E08408F1600898
:1051C000404501D1484601E04FF48000DFF8CC842F
:1051D000A8F13808C8F800006AE0DFF8BC8408F1DC
:1051E0001808404532D9884205D0904203D09842F1
:1051F00001D0A04201D1012021E0A84205D0B04257
:1052000003D0B84201D0604501D1402017E0DFF85B
:10521000888440450FD0DFF8848440450BD0DFF808
:10522000788408F16008404505D0DFF8708408F103
:105230006008404501D1484601E04FF48000DFF8A6
:105240005884A8F14008C8F80C0031E0884205D025
:10525000904203D0984201D0A04201D1012021E028
:10526000A84205D0B04203D0B84201D0604501D178
:10527000402017E0DFF8208440450FD0DFF81C8481
:1052800040450BD0DFF8108408F16008404505D098
:10529000DFF8088408F16008404501D1484601E084
:1052A0004FF48000DFF8F083A8F14008C8F8080048
:1052B000FB48DFF8E883806C009008F1180800686C
:1052C000404531D9884205D0904203D0984201D060
:1052D000A04201D1202022E0A84205D0B04203D054
:1052E000B84201D0604501D1504618E0DFF8A883EC
:1052F00040450FD0DFF8A48340450BD0DFF89883FA
:1053000008F16008404505D0DFF8908308F1600897
:10531000404502D14FF4001001E04FF00060DFF88B
:105320007C83A8F1340836E0DFF86C8308F1780854
:10533000404533D9884205D0904203D0984201D0ED
:10534000A04201D1202022E0A84205D0B04203D0E3
:10535000B84201D0604501D1504618E0DFF83883EB
:1053600040450FD0DFF8348340450BD0DFF8288369
:1053700008F16008404505D0DFF8208308F1600897
:10538000404502D14FF4001001E04FF00060DFF81B
:105390000C83A8F13808C8F800006CE0DFF8F88248
:1053A00008F11808404533D9884205D0904203D00F
:1053B000984201D0A04201D1202022E0A84205D08D
:1053C000B04203D0B84201D0604501D1504618E048
:1053D000DFF8C48240450FD0DFF8C08240450BD0D3
:1053E000DFF8B48208F16008404505D0DFF8AC82F0
:1053F00008F16008404502D14FF4001001E04FF081
:105400000060DFF89482A8F14008C8F80C0032E090
:10541000884205D0904203D0984201D0A04201D1E9
:10542000202022E0A84205D0B04203D0B84201D0EB
:10543000604501D1504618E0DFF85C8240450FD04E
:10544000DFF8588240450BD0DFF84C8208F1600845
:10545000404505D0DFF8448208F16008404502D19C
:105460004FF4001001E04FF00060DFF82C82A8F14B
:105470004008C8F808000098DFF820A200680AF188
:10548000180A504531D9884205D0904203D098423D
:1054900001D0A04201D1102022E0A84205D0B042A4
:1054A00003D0B84201D0604501D1584618E0DFF87A
:1054B000E88140450FD0DFF8E48140450BD0DFF8AC
:1054C000D88108F16008404505D0DFF8D08108F1A7
:1054D0006008404502D14FF4801001E04FF0806039
:1054E000DFF8B881A8F1340836E0DFF8AC8108F1C4
:1054F0007808404533D9884205D0904203D098427D
:1055000001D0A04201D1102022E0A84205D0B04233
:1055100003D0B84201D0604501D1584618E0DFF809
:10552000788140450FD0DFF8748140450BD0DFF81B
:10553000688108F16008404505D0DFF8608108F116
:105540006008404502D14FF4801001E04FF08060C8
:10555000DFF84881A8F13808C8F800006CE0DFF8EF
:10556000388108F11808404533D9884205D0904267
:1055700003D0984201D0A04201D1102022E0A842DD
:1055800005D0B04203D0B84201D0604501D15846A1
:1055900018E0DFF8048140450FD0DFF80081404576
:1055A0000BD0DFF8F48008F16008404505D0DFF843
:1055B000EC8008F16008404502D14FF4801001E012
:1055C0004FF08060DFF8D080A8F14008C8F80C00E8
:1055D00032E0884205D0904203D0984201D0A042E8
:1055E00001D1102022E0A84205D0B04203D0B84239
:1055F00001D0604501D1584618E0DFF89C80404555
:105600000FD0DFF8988040450BD0DFF88C8008F190
:105610006008404505D0DFF8848008F16008404507
:1056200002D14FF4801001E04FF08060DFF8688015
:10563000A8F14008C8F8080000980068504536D91D
:10564000884205D0904203D0984201D0A04201D1B7
:10565000082029E0A84205D0B04203D0B84201D0CA
:10566000604502D14FF400701EE0DFF82C80404509
:105670000FD0DFF8288040450BD0DFF81C8008F100
:105680006008404505D0DFF8148008F16008404507
:1056900008D14FF4002007E040600240406402401F
:1056A000F80300204FF00070DFF8E88439E0DFF8FD
:1056B000E884404538D9884205D0904203D09842CA
:1056C00001D0A04201D1082027E0A84205D0B04275
:1056D00003D0B84201D0604502D14FF400701CE005
:1056E000DFF8B484A8F17808404511D0DFF8A4842D
:1056F00008F1340840450BD0DFF89C84A8F1180865
:10570000404505D0DFF88C8408F19408404502D16B
:105710004FF4002001E04FF00070DFF87884A8F12A
:105720000408C8F8000076E0DFF86C84A8F160088F
:10573000404538D9884205D0904203D0984201D0E4
:10574000A04201D1082027E0A84205D0B04203D0F2
:10575000B84201D0604502D14FF400701CE0DFF880
:105760003884A8F17808404511D0DFF8288408F182
:10577000340840450BD0DFF82084A8F118084045D4
:1057800005D0DFF8108408F19408404502D14FF4A9
:10579000002001E04FF00070DFF8FC83A8F1B808AA
:1057A000C8F80C0037E0884205D0904203D09842F8
:1057B00001D0A04201D1082027E0A84205D0B04284
:1057C00003D0B84201D0604502D14FF400701CE014
:1057D000DFF8C483A8F17808404511D0DFF8B4831E
:1057E00008F1340840450BD0DFF8AC83A8F1180865
:1057F000404505D0DFF89C8308F19408404502D16C
:105800004FF4002001E04FF00070DFF88C83A8F126
:10581000B808C8F8080000980068504533D9884295
:1058200005D0904203D0984201D0A04201D104207B
:1058300026E0A84205D0B04203D0B84201D060456E
:1058400001D170461CE0DFF85083A8F1780840458C
:1058500011D0DFF8408308F1340840450BD0DFF861
:105860003883A8F11808404505D0DFF8288308F1EF
:105870009408404502D14FF4802001E04FF0807041
:10588000DFF8108338E0DFF81083404537D98842CD
:1058900005D0904203D0984201D0A04201D104200B
:1058A00026E0A84205D0B04203D0B84201D06045FE
:1058B00001D170461CE0DFF8E082A8F1780840458D
:1058C00011D0DFF8D08208F1340840450BD0DFF862
:1058D000C882A8F11808404505D0DFF8B88208F161
:1058E0009408404502D14FF4802001E04FF08070D1
:1058F000DFF8A082A8F10408C8F8000074E0DFF81F
:105900009882A8F16008404537D9884205D0904276
:1059100003D0984201D0A04201D1042026E0A84241
:1059200005D0B04203D0B84201D0604501D17046E5
:105930001CE0DFF86482A8F17808404511D0DFF858
:10594000548208F1340840450BD0DFF84C82A8F1AE
:105950001808404505D0DFF83C8208F1940840451E
:1059600002D14FF4802001E04FF08070DFF82882F0
:10597000A8F1B808C8F80C0036E0884205D090427B
:1059800003D0984201D0A04201D1042026E0A842D1
:1059900005D0B04203D0B84201D0604501D1704675
:1059A0001CE0DFF8F481A8F17808404511D0DFF859
:1059B000E48108F1340840450BD0DFF8DC81A8F120
:1059C0001808404505D0DFF8CC8108F1940840451F
:1059D00002D14FF4802001E04FF08070DFF8B881F1
:1059E000A8F1B808C8F8080000980068504529D9FF
:1059F000884205D0904203D0984201D0A04201D104
:105A000001201DE0A84205D0B04203D0B84201D029
:105A1000604501D1402013E05F49783988420BD0BE
:105A20005C493431884207D05B491839884203D039
:105A300058499431884201D1484601E04FF4800032
:105A400054492DE0DFF8508140452BD9884205D0DC
:105A5000904203D0984201D0A04201D101201DE024
:105A6000A84205D0B04203D0B84201D0604501D170
:105A7000402013E04849783988420BD045493431F9
:105A8000884207D044491839884203D041499431AB
:105A9000884201D1484601E04FF480003D49091F8A
:105AA00008605CE0DFF8F080A8F1600840452BD981
:105AB000884205D0904203D0984201D0A04201D143
:105AC00001201DE0A84205D0B04203D0B84201D069
:105AD000604501D1402013E02F49783988420BD02E
